{"abi":[{"type":"constructor","inputs":[{"name":"_title","type":"string","internalType":"string"},{"name":"_startDate","type":"uint256","internalType":"uint256"},{"name":"_endDate","type":"uint256","internalType":"uint256"},{"name":"_goal","type":"uint256","internalType":"uint256"},{"name":"_creator","type":"address","internalType":"address"}],"stateMutability":"nonpayable"},{"type":"function","name":"cancelCampaign","inputs":[],"outputs":[],"stateMutability":"nonpayable"},{"type":"function","name":"contribute","inputs":[{"name":"_customer","type":"address","internalType":"address"}],"outputs":[],"stateMutability":"payable"},{"type":"function","name":"contributed","inputs":[{"name":"","type":"address","internalType":"address"}],"outputs":[{"name":"","type":"bool","internalType":"bool"}],"stateMutability":"view"},{"type":"function","name":"contributions","inputs":[{"name":"","type":"address","internalType":"address"}],"outputs":[{"name":"","type":"uint256","internalType":"uint256"}],"stateMutability":"view"},{"type":"function","name":"contributors","inputs":[{"name":"","type":"uint256","internalType":"uint256"}],"outputs":[{"name":"","type":"address","internalType":"address"}],"stateMutability":"view"},{"type":"function","name":"creator","inputs":[],"outputs":[{"name":"","type":"address","internalType":"address"}],"stateMutability":"view"},{"type":"function","name":"endDate","inputs":[],"outputs":[{"name":"","type":"uint256","internalType":"uint256"}],"stateMutability":"view"},{"type":"function","name":"getContribution","inputs":[{"name":"_contributor","type":"address","internalType":"address"}],"outputs":[{"name":"","type":"uint256","internalType":"uint256"}],"stateMutability":"view"},{"type":"function","name":"goal","inputs":[],"outputs":[{"name":"","type":"uint256","internalType":"uint256"}],"stateMutability":"view"},{"type":"function","name":"isActive","inputs":[],"outputs":[{"name":"","type":"bool","internalType":"bool"}],"stateMutability":"view"},{"type":"function","name":"isCanceled","inputs":[],"outputs":[{"name":"","type":"bool","internalType":"bool"}],"stateMutability":"view"},{"type":"function","name":"owner","inputs":[],"outputs":[{"name":"","type":"address","internalType":"address"}],"stateMutability":"view"},{"type":"function","name":"refund","inputs":[{"name":"_contributor","type":"address","internalType":"address"}],"outputs":[],"stateMutability":"nonpayable"},{"type":"function","name":"renounceOwnership","inputs":[],"outputs":[],"stateMutability":"nonpayable"},{"type":"function","name":"startDate","inputs":[],"outputs":[{"name":"","type":"uint256","internalType":"uint256"}],"stateMutability":"view"},{"type":"function","name":"title","inputs":[],"outputs":[{"name":"","type":"string","internalType":"string"}],"stateMutability":"view"},{"type":"function","name":"totalEthContributed","inputs":[],"outputs":[{"name":"","type":"uint256","internalType":"uint256"}],"stateMutability":"view"},{"type":"function","name":"transferOwnership","inputs":[{"name":"newOwner","type":"address","internalType":"address"}],"outputs":[],"stateMutability":"nonpayable"},{"type":"function","name":"withdraw","inputs":[],"outputs":[],"stateMutability":"nonpayable"},{"type":"event","name":"CampaignCanceled","inputs":[],"anonymous":false},{"type":"event","name":"ContributionMade","inputs":[{"name":"contributor","type":"address","indexed":true,"internalType":"address"},{"name":"amount","type":"uint256","indexed":false,"internalType":"uint256"}],"anonymous":false},{"type":"event","name":"FundsWithdrawn","inputs":[{"name":"owner","type":"address","indexed":false,"internalType":"address"},{"name":"amount","type":"uint256","indexed":false,"internalType":"uint256"}],"anonymous":false},{"type":"event","name":"OwnershipTransferred","inputs":[{"name":"previousOwner","type":"address","indexed":true,"internalType":"address"},{"name":"newOwner","type":"address","indexed":true,"internalType":"address"}],"anonymous":false},{"type":"event","name":"Refund","inputs":[{"name":"customer","type":"address","indexed":false,"internalType":"address"},{"name":"amount","type":"uint256","indexed":false,"internalType":"uint256"}],"anonymous":false},{"type":"error","name":"AmountLessThanZero","inputs":[]},{"type":"error","name":"CampaignEnded","inputs":[]},{"type":"error","name":"CampaignGoalExceeded","inputs":[]},{"type":"error","name":"CampaignGoalNotReached","inputs":[]},{"type":"error","name":"CampaignGoalReached","inputs":[]},{"type":"error","name":"CampaignIsCanceled","inputs":[]},{"type":"error","name":"CampaignNotEnded","inputs":[]},{"type":"error","name":"CampaignNotStarted","inputs":[]},{"type":"error","name":"OnlyContributor","inputs":[]},{"type":"error","name":"OwnableInvalidOwner","inputs":[{"name":"owner","type":"address","internalType":"address"}]},{"type":"error","name":"OwnableUnauthorizedAccount","inputs":[{"name":"account","type":"address","internalType":"address"}]}],"bytecode":{"object":"0x608060405234801562000010575f80fd5b50604051620010653803806200106583398101604081905262000033916200013d565b33806200005957604051631e4fbdf760e01b81525f600482015260240160405180910390fd5b6200006481620000be565b506001620000738682620002c5565b50600293909355600391909155600455600780546005805460ff191690555f6006556001600160a01b031990811633909116176001600160a01b03909216919091179055506200038d565b5f80546001600160a01b038381166001600160a01b0319831681178455604051919092169283917f8be0079c531659141344cd1fd0a4f28419497f9722a3daafe3b4186f6b6457e09190a35050565b634e487b7160e01b5f52604160045260245ffd5b80516001600160a01b038116811462000138575f80fd5b919050565b5f805f805f60a0868803121562000152575f80fd5b85516001600160401b038082111562000169575f80fd5b818801915088601f8301126200017d575f80fd5b8151818111156200019257620001926200010d565b604051601f8201601f19908116603f01168101908382118183101715620001bd57620001bd6200010d565b81604052828152602093508b84848701011115620001d9575f80fd5b5f91505b82821015620001fc5784820184015181830185015290830190620001dd565b5f848483010152809950505050808801519550505060408601519250606086015191506200022d6080870162000121565b90509295509295909350565b600181811c908216806200024e57607f821691505b6020821081036200026d57634e487b7160e01b5f52602260045260245ffd5b50919050565b601f821115620002c0575f81815260208120601f850160051c810160208610156200029b5750805b601f850160051c820191505b81811015620002bc57828155600101620002a7565b5050505b505050565b81516001600160401b03811115620002e157620002e16200010d565b620002f981620002f2845462000239565b8462000273565b602080601f8311600181146200032f575f8415620003175750858301515b5f19600386901b1c1916600185901b178555620002bc565b5f85815260208120601f198616915b828110156200035f578886015182559484019460019091019084016200033e565b50858210156200037d57878501515f19600388901b60f8161c191681555b5050505050600190811b01905550565b610cca806200039b5f395ff3fe608060405260043610610110575f3560e01c80634a79d50c1161009d578063995c5e9d11610062578063995c5e9d146102d1578063c24a0f8b146102ff578063cb28225314610314578063f2fde38b14610329578063fa89401a14610348575f80fd5b80634a79d50c14610259578063715018a61461027a57806373e888fd1461028e5780638da5cb5b146102a1578063980e7844146102bd575f80fd5b806322f3e2d4116100e357806322f3e2d4146101d05780633cb5d100146101e45780633ccfd60b14610203578063401938831461021957806342e94c901461022e575f80fd5b806302d05d3f146101145780630b97bc86146101505780630ed5a9331461017357806321eff7fc1461019c575b5f80fd5b34801561011f575f80fd5b50600754610133906001600160a01b031681565b6040516001600160a01b0390911681526020015b60405180910390f35b34801561015b575f80fd5b5061016560025481565b604051908152602001610147565b34801561017e575f80fd5b5060055461018c9060ff1681565b6040519015158152602001610147565b3480156101a7575f80fd5b506101656101b6366004610b74565b6001600160a01b03165f9081526008602052604090205490565b3480156101db575f80fd5b5061018c610367565b3480156101ef575f80fd5b506101336101fe366004610ba1565b610381565b34801561020e575f80fd5b506102176103a9565b005b348015610224575f80fd5b5061016560045481565b348015610239575f80fd5b50610165610248366004610b74565b60086020525f908152604090205481565b348015610264575f80fd5b5061026d610503565b6040516101479190610bb8565b348015610285575f80fd5b5061021761058f565b61021761029c366004610b74565b6105a2565b3480156102ac575f80fd5b505f546001600160a01b0316610133565b3480156102c8575f80fd5b50610217610790565b3480156102dc575f80fd5b5061018c6102eb366004610b74565b60096020525f908152604090205460ff1681565b34801561030a575f80fd5b5061016560035481565b34801561031f575f80fd5b5061016560065481565b348015610334575f80fd5b50610217610343366004610b74565b6108a0565b348015610353575f80fd5b50610217610362366004610b74565b6108dd565b5f6003544211801561037c575060055460ff16155b905090565b600a8181548110610390575f80fd5b5f918252602090912001546001600160a01b0316905081565b60055460ff16156103cd57604051637ad5c20d60e01b815260040160405180910390fd5b6003544210156103f05760405163cc76115360e01b815260040160405180910390fd5b60045460065410156104155760405163365485ef60e11b815260040160405180910390fd5b61041d6109f4565b6007546040513031915f916001600160a01b039091169083908381818185875af1925050503d805f811461046c576040519150601f19603f3d011682016040523d82523d5f602084013e610471565b606091505b50509050806104b95760405162461bcd60e51b815260206004820152600f60248201526e151c985b9cd9995c8819985a5b1959608a1b60448201526064015b60405180910390fd5b600754604080516001600160a01b039092168252602082018490527feaff4b37086828766ad3268786972c0cd24259d4c87a80f9d3963a3c3d999b0d910160405180910390a15050565b6001805461051090610c03565b80601f016020809104026020016040519081016040528092919081815260200182805461053c90610c03565b80156105875780601f1061055e57610100808354040283529160200191610587565b820191905f5260205f20905b81548152906001019060200180831161056a57829003601f168201915b505050505081565b6105976109f4565b6105a05f610a20565b565b6002544210156105c5576040516333f44d6160e01b815260040160405180910390fd5b60035442106105e75760405163154eb81560e21b815260040160405180910390fd5b60055460ff161561060b57604051637ad5c20d60e01b815260040160405180910390fd5b6004546006541061062f5760405163653fd1bd60e01b815260040160405180910390fd5b6106376109f4565b34806106565760405163820bf1e560e01b815260040160405180910390fd5b600454816006546106679190610c4f565b111561068657604051632f7899c560e21b815260040160405180910390fd5b6001600160a01b0382165f9081526009602052604090205460ff1661070a576001600160a01b0382165f818152600960205260408120805460ff19166001908117909155600a805491820181559091527fc65a7bb8d6351c1cf70c95a316cc6a92839c986682d98bc35f958f4883f9d2a80180546001600160a01b03191690911790555b6001600160a01b0382165f9081526008602052604081208054839290610731908490610c4f565b925050819055508060065f8282546107499190610c4f565b90915550506040518181526001600160a01b038316907f6770260ea820d2f539364e7617e021543aaf6d192f2fd2a47c20db6bd99a4eb99060200160405180910390a25050565b60055460ff16156107b457604051637ad5c20d60e01b815260040160405180910390fd5b600454600654106107d85760405163653fd1bd60e01b815260040160405180910390fd5b60035442106107fa5760405163154eb81560e21b815260040160405180910390fd5b6108026109f4565b5f5b600a54811015610868575f600a828154811061082257610822610c68565b5f9182526020808320909101546001600160a01b031680835260089091526040909120549091506108538282610a6f565b5050808061086090610c7c565b915050610804565b506005805460ff191660011790556040517fb83ebe09f40e9293bdea1d6567fae3175119d3d0ff13c4b4df15994837dd7f51905f90a1565b6108a86109f4565b6001600160a01b0381166108d157604051631e4fbdf760e01b81525f60048201526024016104b0565b6108da81610a20565b50565b6003544210156109005760405163cc76115360e01b815260040160405180910390fd5b600454600654106109245760405163653fd1bd60e01b815260040160405180910390fd5b61092c6109f4565b6001600160a01b038082165f8181526008602052604090205460075490921690036109bb575f5b600a548110156109b6575f600a828154811061097157610971610c68565b5f9182526020808320909101546001600160a01b031680835260089091526040909120549091506109a3908290610a6f565b50806109ae81610c7c565b915050610953565b505050565b6001600160a01b0382165f9081526009602052604090205460ff1680156109e157505f81115b156109f0576109f08282610a6f565b5050565b5f546001600160a01b031633146105a05760405163118cdaa760e01b81523360048201526024016104b0565b5f80546001600160a01b038381166001600160a01b0319831681178455604051919092169283917f8be0079c531659141344cd1fd0a4f28419497f9722a3daafe3b4186f6b6457e09190a35050565b6001600160a01b0382165f9081526008602052604090205480156109b6576001600160a01b0383165f818152600860205260408082208290555190919083908381818185875af1925050503d805f8114610ae4576040519150601f19603f3d011682016040523d82523d5f602084013e610ae9565b606091505b5050905080610b2c5760405162461bcd60e51b815260206004820152600f60248201526e151c985b9cd9995c8819985a5b1959608a1b60448201526064016104b0565b604080516001600160a01b0386168152602081018590527fbb28353e4598c3b9199101a66e0989549b659a59a54d2c27fbb183f1932c8e6d910160405180910390a150505050565b5f60208284031215610b84575f80fd5b81356001600160a01b0381168114610b9a575f80fd5b9392505050565b5f60208284031215610bb1575f80fd5b5035919050565b5f6020808352835180828501525f5b81811015610be357858101830151858201604001528201610bc7565b505f604082860101526040601f19601f8301168501019250505092915050565b600181811c90821680610c1757607f821691505b602082108103610c3557634e487b7160e01b5f52602260045260245ffd5b50919050565b634e487b7160e01b5f52601160045260245ffd5b80820180821115610c6257610c62610c3b565b92915050565b634e487b7160e01b5f52603260045260245ffd5b5f60018201610c8d57610c8d610c3b565b506001019056fea2646970667358221220516f03735e66a41577aa53c0f72719b362e2b66d3ca5159bf77d2b7be3e6e0f464736f6c63430008140033","linkReferences":{}},"methodIdentifiers":{"cancelCampaign()":"980e7844","contribute(address)":"73e888fd","contributed(address)":"995c5e9d","contributions(address)":"42e94c90","contributors(uint256)":"3cb5d100","creator()":"02d05d3f","endDate()":"c24a0f8b","getContribution(address)":"21eff7fc","goal()":"40193883","isActive()":"22f3e2d4","isCanceled()":"0ed5a933","owner()":"8da5cb5b","refund(address)":"fa89401a","renounceOwnership()":"715018a6","startDate()":"0b97bc86","title()":"4a79d50c","totalEthContributed()":"cb282253","transferOwnership(address)":"f2fde38b","withdraw()":"3ccfd60b"},"id":27}