{"abi":[{"type":"constructor","inputs":[{"name":"_title","type":"string","internalType":"string"},{"name":"_description","type":"string","internalType":"string"},{"name":"_startDate","type":"uint256","internalType":"uint256"},{"name":"_endDate","type":"uint256","internalType":"uint256"},{"name":"_goal","type":"uint256","internalType":"uint256"},{"name":"_creator","type":"address","internalType":"address"}],"stateMutability":"nonpayable"},{"type":"function","name":"cancelCampaign","inputs":[],"outputs":[],"stateMutability":"nonpayable"},{"type":"function","name":"contribute","inputs":[{"name":"_customer","type":"address","internalType":"address"}],"outputs":[],"stateMutability":"payable"},{"type":"function","name":"contributed","inputs":[{"name":"","type":"address","internalType":"address"}],"outputs":[{"name":"","type":"bool","internalType":"bool"}],"stateMutability":"view"},{"type":"function","name":"contributions","inputs":[{"name":"","type":"address","internalType":"address"}],"outputs":[{"name":"","type":"uint256","internalType":"uint256"}],"stateMutability":"view"},{"type":"function","name":"contributors","inputs":[{"name":"","type":"uint256","internalType":"uint256"}],"outputs":[{"name":"","type":"address","internalType":"address"}],"stateMutability":"view"},{"type":"function","name":"creator","inputs":[],"outputs":[{"name":"","type":"address","internalType":"address"}],"stateMutability":"view"},{"type":"function","name":"description","inputs":[],"outputs":[{"name":"","type":"string","internalType":"string"}],"stateMutability":"view"},{"type":"function","name":"endDate","inputs":[],"outputs":[{"name":"","type":"uint256","internalType":"uint256"}],"stateMutability":"view"},{"type":"function","name":"getContribution","inputs":[{"name":"_contributor","type":"address","internalType":"address"}],"outputs":[{"name":"","type":"uint256","internalType":"uint256"}],"stateMutability":"view"},{"type":"function","name":"goal","inputs":[],"outputs":[{"name":"","type":"uint256","internalType":"uint256"}],"stateMutability":"view"},{"type":"function","name":"isActive","inputs":[],"outputs":[{"name":"","type":"bool","internalType":"bool"}],"stateMutability":"view"},{"type":"function","name":"isCanceled","inputs":[],"outputs":[{"name":"","type":"bool","internalType":"bool"}],"stateMutability":"view"},{"type":"function","name":"owner","inputs":[],"outputs":[{"name":"","type":"address","internalType":"address"}],"stateMutability":"view"},{"type":"function","name":"refund","inputs":[{"name":"_contributor","type":"address","internalType":"address"}],"outputs":[],"stateMutability":"nonpayable"},{"type":"function","name":"renounceOwnership","inputs":[],"outputs":[],"stateMutability":"nonpayable"},{"type":"function","name":"startDate","inputs":[],"outputs":[{"name":"","type":"uint256","internalType":"uint256"}],"stateMutability":"view"},{"type":"function","name":"title","inputs":[],"outputs":[{"name":"","type":"string","internalType":"string"}],"stateMutability":"view"},{"type":"function","name":"totalEthContributed","inputs":[],"outputs":[{"name":"","type":"uint256","internalType":"uint256"}],"stateMutability":"view"},{"type":"function","name":"transferOwnership","inputs":[{"name":"newOwner","type":"address","internalType":"address"}],"outputs":[],"stateMutability":"nonpayable"},{"type":"function","name":"withdraw","inputs":[],"outputs":[],"stateMutability":"nonpayable"},{"type":"event","name":"CampaignCanceled","inputs":[],"anonymous":false},{"type":"event","name":"ContributionMade","inputs":[{"name":"contributor","type":"address","indexed":true,"internalType":"address"},{"name":"amount","type":"uint256","indexed":false,"internalType":"uint256"}],"anonymous":false},{"type":"event","name":"FundsWithdrawn","inputs":[{"name":"owner","type":"address","indexed":false,"internalType":"address"},{"name":"amount","type":"uint256","indexed":false,"internalType":"uint256"}],"anonymous":false},{"type":"event","name":"OwnershipTransferred","inputs":[{"name":"previousOwner","type":"address","indexed":true,"internalType":"address"},{"name":"newOwner","type":"address","indexed":true,"internalType":"address"}],"anonymous":false},{"type":"event","name":"Refund","inputs":[{"name":"customer","type":"address","indexed":false,"internalType":"address"},{"name":"amount","type":"uint256","indexed":false,"internalType":"uint256"}],"anonymous":false},{"type":"error","name":"AmountLessThanZero","inputs":[]},{"type":"error","name":"CampaignEnded","inputs":[]},{"type":"error","name":"CampaignGoalExceeded","inputs":[]},{"type":"error","name":"CampaignGoalNotReached","inputs":[]},{"type":"error","name":"CampaignGoalReached","inputs":[]},{"type":"error","name":"CampaignIsCanceled","inputs":[]},{"type":"error","name":"CampaignNotEnded","inputs":[]},{"type":"error","name":"CampaignNotStarted","inputs":[]},{"type":"error","name":"OnlyContributor","inputs":[]},{"type":"error","name":"OwnableInvalidOwner","inputs":[{"name":"owner","type":"address","internalType":"address"}]},{"type":"error","name":"OwnableUnauthorizedAccount","inputs":[{"name":"account","type":"address","internalType":"address"}]}],"bytecode":{"object":"0x608060405234801562000010575f80fd5b506040516200204d3803806200204d833981810160405281019062000036919062000480565b335f73ffffffffffffffffffffffffffffffffffffffff168173ffffffffffffffffffffffffffffffffffffffff1603620000aa575f6040517f1e4fbdf7000000000000000000000000000000000000000000000000000000008152600401620000a1919062000567565b60405180910390fd5b620000bb81620001a160201b60201c565b508560019081620000cd9190620007b0565b508460029081620000df9190620007b0565b508360038190555082600481905550816005819055503360085f6101000a81548173ffffffffffffffffffffffffffffffffffffffff021916908373ffffffffffffffffffffffffffffffffffffffff1602179055505f60065f6101000a81548160ff0219169083151502179055505f6007819055508060085f6101000a81548173ffffffffffffffffffffffffffffffffffffffff021916908373ffffffffffffffffffffffffffffffffffffffff16021790555050505050505062000894565b5f805f9054906101000a900473ffffffffffffffffffffffffffffffffffffffff169050815f806101000a81548173ffffffffffffffffffffffffffffffffffffffff021916908373ffffffffffffffffffffffffffffffffffffffff1602179055508173ffffffffffffffffffffffffffffffffffffffff168173ffffffffffffffffffffffffffffffffffffffff167f8be0079c531659141344cd1fd0a4f28419497f9722a3daafe3b4186f6b6457e060405160405180910390a35050565b5f604051905090565b5f80fd5b5f80fd5b5f80fd5b5f80fd5b5f601f19601f8301169050919050565b7f4e487b71000000000000000000000000000000000000000000000000000000005f52604160045260245ffd5b620002c3826200027b565b810181811067ffffffffffffffff82111715620002e557620002e46200028b565b5b80604052505050565b5f620002f962000262565b9050620003078282620002b8565b919050565b5f67ffffffffffffffff8211156200032957620003286200028b565b5b62000334826200027b565b9050602081019050919050565b5f5b838110156200036057808201518184015260208101905062000343565b5f8484015250505050565b5f620003816200037b846200030c565b620002ee565b905082815260208101848484011115620003a0576200039f62000277565b5b620003ad84828562000341565b509392505050565b5f82601f830112620003cc57620003cb62000273565b5b8151620003de8482602086016200036b565b91505092915050565b5f819050919050565b620003fb81620003e7565b811462000406575f80fd5b50565b5f815190506200041981620003f0565b92915050565b5f73ffffffffffffffffffffffffffffffffffffffff82169050919050565b5f6200044a826200041f565b9050919050565b6200045c816200043e565b811462000467575f80fd5b50565b5f815190506200047a8162000451565b92915050565b5f805f805f8060c087890312156200049d576200049c6200026b565b5b5f87015167ffffffffffffffff811115620004bd57620004bc6200026f565b5b620004cb89828a01620003b5565b965050602087015167ffffffffffffffff811115620004ef57620004ee6200026f565b5b620004fd89828a01620003b5565b95505060406200051089828a0162000409565b94505060606200052389828a0162000409565b93505060806200053689828a0162000409565b92505060a06200054989828a016200046a565b9150509295509295509295565b62000561816200043e565b82525050565b5f6020820190506200057c5f83018462000556565b92915050565b5f81519050919050565b7f4e487b71000000000000000000000000000000000000000000000000000000005f52602260045260245ffd5b5f6002820490506001821680620005d157607f821691505b602082108103620005e757620005e66200058c565b5b50919050565b5f819050815f5260205f209050919050565b5f6020601f8301049050919050565b5f82821b905092915050565b5f600883026200064b7fffffffffffffffffffffffffffffffffffffffffffffffffffffffffffffffff826200060e565b6200065786836200060e565b95508019841693508086168417925050509392505050565b5f819050919050565b5f62000698620006926200068c84620003e7565b6200066f565b620003e7565b9050919050565b5f819050919050565b620006b38362000678565b620006cb620006c2826200069f565b8484546200061a565b825550505050565b5f90565b620006e1620006d3565b620006ee818484620006a8565b505050565b5b818110156200071557620007095f82620006d7565b600181019050620006f4565b5050565b601f82111562000764576200072e81620005ed565b6200073984620005ff565b8101602085101562000749578190505b620007616200075885620005ff565b830182620006f3565b50505b505050565b5f82821c905092915050565b5f620007865f198460080262000769565b1980831691505092915050565b5f620007a0838362000775565b9150826002028217905092915050565b620007bb8262000582565b67ffffffffffffffff811115620007d757620007d66200028b565b5b620007e38254620005b9565b620007f082828562000719565b5f60209050601f83116001811462000826575f841562000811578287015190505b6200081d858262000793565b8655506200088c565b601f1984166200083686620005ed565b5f5b828110156200085f5784890151825560018201915060208501945060208101905062000838565b868310156200087f57848901516200087b601f89168262000775565b8355505b6001600288020188555050505b505050505050565b6117ab80620008a25f395ff3fe60806040526004361061011e575f3560e01c8063715018a61161009f578063995c5e9d11610063578063995c5e9d14610384578063c24a0f8b146103c0578063cb282253146103ea578063f2fde38b14610414578063fa89401a1461043c5761011e565b8063715018a6146102e85780637284e416146102fe57806373e888fd146103285780638da5cb5b14610344578063980e78441461036e5761011e565b80633cb5d100116100e65780633cb5d100146102065780633ccfd60b14610242578063401938831461025857806342e94c90146102825780634a79d50c146102be5761011e565b806302d05d3f146101225780630b97bc861461014c5780630ed5a9331461017657806321eff7fc146101a057806322f3e2d4146101dc575b5f80fd5b34801561012d575f80fd5b50610136610464565b604051610143919061139f565b60405180910390f35b348015610157575f80fd5b50610160610489565b60405161016d91906113d0565b60405180910390f35b348015610181575f80fd5b5061018a61048f565b6040516101979190611403565b60405180910390f35b3480156101ab575f80fd5b506101c660048036038101906101c1919061144a565b6104a1565b6040516101d391906113d0565b60405180910390f35b3480156101e7575f80fd5b506101f06104e7565b6040516101fd9190611403565b60405180910390f35b348015610211575f80fd5b5061022c6004803603810190610227919061149f565b61050a565b604051610239919061139f565b60405180910390f35b34801561024d575f80fd5b50610256610545565b005b348015610263575f80fd5b5061026c61074f565b60405161027991906113d0565b60405180910390f35b34801561028d575f80fd5b506102a860048036038101906102a3919061144a565b610755565b6040516102b591906113d0565b60405180910390f35b3480156102c9575f80fd5b506102d261076a565b6040516102df9190611554565b60405180910390f35b3480156102f3575f80fd5b506102fc6107f6565b005b348015610309575f80fd5b50610312610809565b60405161031f9190611554565b60405180910390f35b610342600480360381019061033d919061144a565b610895565b005b34801561034f575f80fd5b50610358610bde565b604051610365919061139f565b60405180910390f35b348015610379575f80fd5b50610382610c05565b005b34801561038f575f80fd5b506103aa60048036038101906103a5919061144a565b610dc2565b6040516103b79190611403565b60405180910390f35b3480156103cb575f80fd5b506103d4610ddf565b6040516103e191906113d0565b60405180910390f35b3480156103f5575f80fd5b506103fe610de5565b60405161040b91906113d0565b60405180910390f35b34801561041f575f80fd5b5061043a6004803603810190610435919061144a565b610deb565b005b348015610447575f80fd5b50610462600480360381019061045d919061144a565b610e6f565b005b60085f9054906101000a900473ffffffffffffffffffffffffffffffffffffffff1681565b60035481565b60065f9054906101000a900460ff1681565b5f60095f8373ffffffffffffffffffffffffffffffffffffffff1673ffffffffffffffffffffffffffffffffffffffff1681526020019081526020015f20549050919050565b5f60045442118015610505575060065f9054906101000a900460ff16155b905090565b600b8181548110610519575f80fd5b905f5260205f20015f915054906101000a900473ffffffffffffffffffffffffffffffffffffffff1681565b60065f9054906101000a900460ff161561058b576040517f7ad5c20d00000000000000000000000000000000000000000000000000000000815260040160405180910390fd5b6004544210156105c7576040517fcc76115300000000000000000000000000000000000000000000000000000000815260040160405180910390fd5b6005546007541015610605576040517f6ca90bde00000000000000000000000000000000000000000000000000000000815260040160405180910390fd5b61060d61109e565b5f3073ffffffffffffffffffffffffffffffffffffffff163190505f60085f9054906101000a900473ffffffffffffffffffffffffffffffffffffffff1673ffffffffffffffffffffffffffffffffffffffff168260405161066e906115a1565b5f6040518083038185875af1925050503d805f81146106a8576040519150601f19603f3d011682016040523d82523d5f602084013e6106ad565b606091505b50509050806106f1576040517f08c379a00000000000000000000000000000000000000000000000000000000081526004016106e8906115ff565b60405180910390fd5b7feaff4b37086828766ad3268786972c0cd24259d4c87a80f9d3963a3c3d999b0d60085f9054906101000a900473ffffffffffffffffffffffffffffffffffffffff168360405161074392919061161d565b60405180910390a15050565b60055481565b6009602052805f5260405f205f915090505481565b6001805461077790611671565b80601f01602080910402602001604051908101604052809291908181526020018280546107a390611671565b80156107ee5780601f106107c5576101008083540402835291602001916107ee565b820191905f5260205f20905b8154815290600101906020018083116107d157829003601f168201915b505050505081565b6107fe61109e565b6108075f611125565b565b6002805461081690611671565b80601f016020809104026020016040519081016040528092919081815260200182805461084290611671565b801561088d5780601f106108645761010080835404028352916020019161088d565b820191905f5260205f20905b81548152906001019060200180831161087057829003601f168201915b505050505081565b6003544210156108d1576040517f33f44d6100000000000000000000000000000000000000000000000000000000815260040160405180910390fd5b600454421061090c576040517f553ae05400000000000000000000000000000000000000000000000000000000815260040160405180910390fd5b60065f9054906101000a900460ff1615610952576040517f7ad5c20d00000000000000000000000000000000000000000000000000000000815260040160405180910390fd5b6005546007541061098f576040517f653fd1bd00000000000000000000000000000000000000000000000000000000815260040160405180910390fd5b61099761109e565b5f3490505f81116109d4576040517f820bf1e500000000000000000000000000000000000000000000000000000000815260040160405180910390fd5b600554816007546109e591906116ce565b1115610a1d576040517fbde2671400000000000000000000000000000000000000000000000000000000815260040160405180910390fd5b600a5f8373ffffffffffffffffffffffffffffffffffffffff1673ffffffffffffffffffffffffffffffffffffffff1681526020019081526020015f205f9054906101000a900460ff16610b21576001600a5f8473ffffffffffffffffffffffffffffffffffffffff1673ffffffffffffffffffffffffffffffffffffffff1681526020019081526020015f205f6101000a81548160ff021916908315150217905550600b82908060018154018082558091505060019003905f5260205f20015f9091909190916101000a81548173ffffffffffffffffffffffffffffffffffffffff021916908373ffffffffffffffffffffffffffffffffffffffff1602179055505b8060095f8473ffffffffffffffffffffffffffffffffffffffff1673ffffffffffffffffffffffffffffffffffffffff1681526020019081526020015f205f828254610b6d91906116ce565b925050819055508060075f828254610b8591906116ce565b925050819055508173ffffffffffffffffffffffffffffffffffffffff167f6770260ea820d2f539364e7617e021543aaf6d192f2fd2a47c20db6bd99a4eb982604051610bd291906113d0565b60405180910390a25050565b5f805f9054906101000a900473ffffffffffffffffffffffffffffffffffffffff16905090565b60065f9054906101000a900460ff1615610c4b576040517f7ad5c20d00000000000000000000000000000000000000000000000000000000815260040160405180910390fd5b60055460075410610c88576040517f653fd1bd00000000000000000000000000000000000000000000000000000000815260040160405180910390fd5b6004544210610cc3576040517f553ae05400000000000000000000000000000000000000000000000000000000815260040160405180910390fd5b610ccb61109e565b5f5b600b80549050811015610d79575f600b8281548110610cef57610cee611701565b5b905f5260205f20015f9054906101000a900473ffffffffffffffffffffffffffffffffffffffff1690505f60095f8373ffffffffffffffffffffffffffffffffffffffff1673ffffffffffffffffffffffffffffffffffffffff1681526020019081526020015f20549050610d6482826111e6565b50508080610d719061172e565b915050610ccd565b50600160065f6101000a81548160ff0219169083151502179055507fb83ebe09f40e9293bdea1d6567fae3175119d3d0ff13c4b4df15994837dd7f5160405160405180910390a1565b600a602052805f5260405f205f915054906101000a900460ff1681565b60045481565b60075481565b610df361109e565b5f73ffffffffffffffffffffffffffffffffffffffff168173ffffffffffffffffffffffffffffffffffffffff1603610e63575f6040517f1e4fbdf7000000000000000000000000000000000000000000000000000000008152600401610e5a919061139f565b60405180910390fd5b610e6c81611125565b50565b600454421015610eab576040517fcc76115300000000000000000000000000000000000000000000000000000000815260040160405180910390fd5b60055460075410610ee8576040517f653fd1bd00000000000000000000000000000000000000000000000000000000815260040160405180910390fd5b610ef061109e565b5f60095f8373ffffffffffffffffffffffffffffffffffffffff1673ffffffffffffffffffffffffffffffffffffffff1681526020019081526020015f2054905060085f9054906101000a900473ffffffffffffffffffffffffffffffffffffffff1673ffffffffffffffffffffffffffffffffffffffff168273ffffffffffffffffffffffffffffffffffffffff1603611034575f5b600b8054905081101561102e575f600b8281548110610fa957610fa8611701565b5b905f5260205f20015f9054906101000a900473ffffffffffffffffffffffffffffffffffffffff16905061101a8160095f8473ffffffffffffffffffffffffffffffffffffffff1673ffffffffffffffffffffffffffffffffffffffff1681526020019081526020015f20546111e6565b5080806110269061172e565b915050610f87565b5061109a565b600a5f8373ffffffffffffffffffffffffffffffffffffffff1673ffffffffffffffffffffffffffffffffffffffff1681526020019081526020015f205f9054906101000a900460ff16801561108957505f81115b156110995761109882826111e6565b5b5b5050565b6110a6611359565b73ffffffffffffffffffffffffffffffffffffffff166110c4610bde565b73ffffffffffffffffffffffffffffffffffffffff1614611123576110e7611359565b6040517f118cdaa700000000000000000000000000000000000000000000000000000000815260040161111a919061139f565b60405180910390fd5b565b5f805f9054906101000a900473ffffffffffffffffffffffffffffffffffffffff169050815f806101000a81548173ffffffffffffffffffffffffffffffffffffffff021916908373ffffffffffffffffffffffffffffffffffffffff1602179055508173ffffffffffffffffffffffffffffffffffffffff168173ffffffffffffffffffffffffffffffffffffffff167f8be0079c531659141344cd1fd0a4f28419497f9722a3daafe3b4186f6b6457e060405160405180910390a35050565b5f60095f8473ffffffffffffffffffffffffffffffffffffffff1673ffffffffffffffffffffffffffffffffffffffff1681526020019081526020015f205490505f811115611354575f60095f8573ffffffffffffffffffffffffffffffffffffffff1673ffffffffffffffffffffffffffffffffffffffff1681526020019081526020015f20819055505f8373ffffffffffffffffffffffffffffffffffffffff1682604051611296906115a1565b5f6040518083038185875af1925050503d805f81146112d0576040519150601f19603f3d011682016040523d82523d5f602084013e6112d5565b606091505b5050905080611319576040517f08c379a0000000000000000000000000000000000000000000000000000000008152600401611310906115ff565b60405180910390fd5b7fbb28353e4598c3b9199101a66e0989549b659a59a54d2c27fbb183f1932c8e6d848460405161134a92919061161d565b60405180910390a1505b505050565b5f33905090565b5f73ffffffffffffffffffffffffffffffffffffffff82169050919050565b5f61138982611360565b9050919050565b6113998161137f565b82525050565b5f6020820190506113b25f830184611390565b92915050565b5f819050919050565b6113ca816113b8565b82525050565b5f6020820190506113e35f8301846113c1565b92915050565b5f8115159050919050565b6113fd816113e9565b82525050565b5f6020820190506114165f8301846113f4565b92915050565b5f80fd5b6114298161137f565b8114611433575f80fd5b50565b5f8135905061144481611420565b92915050565b5f6020828403121561145f5761145e61141c565b5b5f61146c84828501611436565b91505092915050565b61147e816113b8565b8114611488575f80fd5b50565b5f8135905061149981611475565b92915050565b5f602082840312156114b4576114b361141c565b5b5f6114c18482850161148b565b91505092915050565b5f81519050919050565b5f82825260208201905092915050565b5f5b838110156115015780820151818401526020810190506114e6565b5f8484015250505050565b5f601f19601f8301169050919050565b5f611526826114ca565b61153081856114d4565b93506115408185602086016114e4565b6115498161150c565b840191505092915050565b5f6020820190508181035f83015261156c818461151c565b905092915050565b5f81905092915050565b50565b5f61158c5f83611574565b91506115978261157e565b5f82019050919050565b5f6115ab82611581565b9150819050919050565b7f5472616e73666572206661696c656400000000000000000000000000000000005f82015250565b5f6115e9600f836114d4565b91506115f4826115b5565b602082019050919050565b5f6020820190508181035f830152611616816115dd565b9050919050565b5f6040820190506116305f830185611390565b61163d60208301846113c1565b9392505050565b7f4e487b71000000000000000000000000000000000000000000000000000000005f52602260045260245ffd5b5f600282049050600182168061168857607f821691505b60208210810361169b5761169a611644565b5b50919050565b7f4e487b71000000000000000000000000000000000000000000000000000000005f52601160045260245ffd5b5f6116d8826113b8565b91506116e3836113b8565b92508282019050808211156116fb576116fa6116a1565b5b92915050565b7f4e487b71000000000000000000000000000000000000000000000000000000005f52603260045260245ffd5b5f611738826113b8565b91507fffffffffffffffffffffffffffffffffffffffffffffffffffffffffffffffff820361176a576117696116a1565b5b60018201905091905056fea26469706673582212205ba410b49e3c9944353157aae4ec92e9a53b8ea3e378520d024173d8b7da502264736f6c63430008140033","linkReferences":{}},"methodIdentifiers":{"cancelCampaign()":"980e7844","contribute(address)":"73e888fd","contributed(address)":"995c5e9d","contributions(address)":"42e94c90","contributors(uint256)":"3cb5d100","creator()":"02d05d3f","description()":"7284e416","endDate()":"c24a0f8b","getContribution(address)":"21eff7fc","goal()":"40193883","isActive()":"22f3e2d4","isCanceled()":"0ed5a933","owner()":"8da5cb5b","refund(address)":"fa89401a","renounceOwnership()":"715018a6","startDate()":"0b97bc86","title()":"4a79d50c","totalEthContributed()":"cb282253","transferOwnership(address)":"f2fde38b","withdraw()":"3ccfd60b"},"id":22}