{"abi":[{"type":"constructor","inputs":[{"name":"_title","type":"string","internalType":"string"},{"name":"_description","type":"string","internalType":"string"},{"name":"_startDate","type":"uint256","internalType":"uint256"},{"name":"_endDate","type":"uint256","internalType":"uint256"},{"name":"_goal","type":"uint256","internalType":"uint256"},{"name":"_creator","type":"address","internalType":"address"}],"stateMutability":"nonpayable"},{"type":"function","name":"cancelCampaign","inputs":[],"outputs":[],"stateMutability":"nonpayable"},{"type":"function","name":"contribute","inputs":[{"name":"_customer","type":"address","internalType":"address"}],"outputs":[],"stateMutability":"payable"},{"type":"function","name":"contributed","inputs":[{"name":"","type":"address","internalType":"address"}],"outputs":[{"name":"","type":"bool","internalType":"bool"}],"stateMutability":"view"},{"type":"function","name":"contributions","inputs":[{"name":"","type":"address","internalType":"address"}],"outputs":[{"name":"","type":"uint256","internalType":"uint256"}],"stateMutability":"view"},{"type":"function","name":"contributors","inputs":[{"name":"","type":"uint256","internalType":"uint256"}],"outputs":[{"name":"","type":"address","internalType":"address"}],"stateMutability":"view"},{"type":"function","name":"creator","inputs":[],"outputs":[{"name":"","type":"address","internalType":"address"}],"stateMutability":"view"},{"type":"function","name":"description","inputs":[],"outputs":[{"name":"","type":"string","internalType":"string"}],"stateMutability":"view"},{"type":"function","name":"endDate","inputs":[],"outputs":[{"name":"","type":"uint256","internalType":"uint256"}],"stateMutability":"view"},{"type":"function","name":"getContribution","inputs":[{"name":"_contributor","type":"address","internalType":"address"}],"outputs":[{"name":"","type":"uint256","internalType":"uint256"}],"stateMutability":"view"},{"type":"function","name":"goal","inputs":[],"outputs":[{"name":"","type":"uint256","internalType":"uint256"}],"stateMutability":"view"},{"type":"function","name":"isActive","inputs":[],"outputs":[{"name":"","type":"bool","internalType":"bool"}],"stateMutability":"view"},{"type":"function","name":"isCanceled","inputs":[],"outputs":[{"name":"","type":"bool","internalType":"bool"}],"stateMutability":"view"},{"type":"function","name":"owner","inputs":[],"outputs":[{"name":"","type":"address","internalType":"address"}],"stateMutability":"view"},{"type":"function","name":"refund","inputs":[{"name":"_contributor","type":"address","internalType":"address"}],"outputs":[],"stateMutability":"nonpayable"},{"type":"function","name":"renounceOwnership","inputs":[],"outputs":[],"stateMutability":"nonpayable"},{"type":"function","name":"startDate","inputs":[],"outputs":[{"name":"","type":"uint256","internalType":"uint256"}],"stateMutability":"view"},{"type":"function","name":"title","inputs":[],"outputs":[{"name":"","type":"string","internalType":"string"}],"stateMutability":"view"},{"type":"function","name":"totalEthContributed","inputs":[],"outputs":[{"name":"","type":"uint256","internalType":"uint256"}],"stateMutability":"view"},{"type":"function","name":"transferOwnership","inputs":[{"name":"newOwner","type":"address","internalType":"address"}],"outputs":[],"stateMutability":"nonpayable"},{"type":"function","name":"withdraw","inputs":[],"outputs":[],"stateMutability":"nonpayable"},{"type":"event","name":"CampaignCanceled","inputs":[],"anonymous":false},{"type":"event","name":"ContributionMade","inputs":[{"name":"contributor","type":"address","indexed":true,"internalType":"address"},{"name":"amount","type":"uint256","indexed":false,"internalType":"uint256"}],"anonymous":false},{"type":"event","name":"FundsWithdrawn","inputs":[{"name":"owner","type":"address","indexed":false,"internalType":"address"},{"name":"amount","type":"uint256","indexed":false,"internalType":"uint256"}],"anonymous":false},{"type":"event","name":"OwnershipTransferred","inputs":[{"name":"previousOwner","type":"address","indexed":true,"internalType":"address"},{"name":"newOwner","type":"address","indexed":true,"internalType":"address"}],"anonymous":false},{"type":"event","name":"Refund","inputs":[{"name":"customer","type":"address","indexed":false,"internalType":"address"},{"name":"amount","type":"uint256","indexed":false,"internalType":"uint256"}],"anonymous":false},{"type":"error","name":"AmountLessThanZero","inputs":[]},{"type":"error","name":"CampaignEnded","inputs":[]},{"type":"error","name":"CampaignGoalExceeded","inputs":[]},{"type":"error","name":"CampaignGoalNotReached","inputs":[]},{"type":"error","name":"CampaignGoalReached","inputs":[]},{"type":"error","name":"CampaignIsCanceled","inputs":[]},{"type":"error","name":"CampaignNotEnded","inputs":[]},{"type":"error","name":"CampaignNotStarted","inputs":[]},{"type":"error","name":"OnlyContributor","inputs":[]},{"type":"error","name":"OwnableInvalidOwner","inputs":[{"name":"owner","type":"address","internalType":"address"}]},{"type":"error","name":"OwnableUnauthorizedAccount","inputs":[{"name":"account","type":"address","internalType":"address"}]}],"bytecode":{"object":"0x608060405234801562000010575f80fd5b50604051620010d7380380620010d78339810160408190526200003391620001dc565b33806200005957604051631e4fbdf760e01b81525f600482015260240160405180910390fd5b6200006481620000cf565b5060016200007387826200030b565b5060026200008286826200030b565b50600393909355600491909155600555600880546006805460ff191690555f6007556001600160a01b031990811633909116176001600160a01b0390921691909117905550620003d39050565b5f80546001600160a01b038381166001600160a01b0319831681178455604051919092169283917f8be0079c531659141344cd1fd0a4f28419497f9722a3daafe3b4186f6b6457e09190a35050565b634e487b7160e01b5f52604160045260245ffd5b5f82601f83011262000142575f80fd5b81516001600160401b03808211156200015f576200015f6200011e565b604051601f8301601f19908116603f011681019082821181831017156200018a576200018a6200011e565b81604052838152602092508683858801011115620001a6575f80fd5b5f91505b83821015620001c95785820183015181830184015290820190620001aa565b5f93810190920192909252949350505050565b5f805f805f8060c08789031215620001f2575f80fd5b86516001600160401b038082111562000209575f80fd5b620002178a838b0162000132565b975060208901519150808211156200022d575f80fd5b506200023c89828a0162000132565b604089015160608a015160808b015160a08c01519399509197509550935090506001600160a01b038116811462000271575f80fd5b809150509295509295509295565b600181811c908216806200029457607f821691505b602082108103620002b357634e487b7160e01b5f52602260045260245ffd5b50919050565b601f82111562000306575f81815260208120601f850160051c81016020861015620002e15750805b601f850160051c820191505b818110156200030257828155600101620002ed565b5050505b505050565b81516001600160401b038111156200032757620003276200011e565b6200033f816200033884546200027f565b84620002b9565b602080601f83116001811462000375575f84156200035d5750858301515b5f19600386901b1c1916600185901b17855562000302565b5f85815260208120601f198616915b82811015620003a55788860151825594840194600190910190840162000384565b5085821015620003c357878501515f19600388901b60f8161c191681555b5050505050600190811b01905550565b610cf680620003e15f395ff3fe60806040526004361061011b575f3560e01c8063715018a61161009d578063995c5e9d11610062578063995c5e9d146102f0578063c24a0f8b1461031e578063cb28225314610333578063f2fde38b14610348578063fa89401a14610367575f80fd5b8063715018a6146102855780637284e4161461029957806373e888fd146102ad5780638da5cb5b146102c0578063980e7844146102dc575f80fd5b80633cb5d100116100e35780633cb5d100146101ef5780633ccfd60b1461020e578063401938831461022457806342e94c90146102395780634a79d50c14610264575f80fd5b806302d05d3f1461011f5780630b97bc861461015b5780630ed5a9331461017e57806321eff7fc146101a757806322f3e2d4146101db575b5f80fd5b34801561012a575f80fd5b5060085461013e906001600160a01b031681565b6040516001600160a01b0390911681526020015b60405180910390f35b348015610166575f80fd5b5061017060035481565b604051908152602001610152565b348015610189575f80fd5b506006546101979060ff1681565b6040519015158152602001610152565b3480156101b2575f80fd5b506101706101c1366004610ba0565b6001600160a01b03165f9081526009602052604090205490565b3480156101e6575f80fd5b50610197610386565b3480156101fa575f80fd5b5061013e610209366004610bcd565b6103a0565b348015610219575f80fd5b506102226103c8565b005b34801561022f575f80fd5b5061017060055481565b348015610244575f80fd5b50610170610253366004610ba0565b60096020525f908152604090205481565b34801561026f575f80fd5b50610278610522565b6040516101529190610be4565b348015610290575f80fd5b506102226105ae565b3480156102a4575f80fd5b506102786105c1565b6102226102bb366004610ba0565b6105ce565b3480156102cb575f80fd5b505f546001600160a01b031661013e565b3480156102e7575f80fd5b506102226107bc565b3480156102fb575f80fd5b5061019761030a366004610ba0565b600a6020525f908152604090205460ff1681565b348015610329575f80fd5b5061017060045481565b34801561033e575f80fd5b5061017060075481565b348015610353575f80fd5b50610222610362366004610ba0565b6108cc565b348015610372575f80fd5b50610222610381366004610ba0565b610909565b5f6004544211801561039b575060065460ff16155b905090565b600b81815481106103af575f80fd5b5f918252602090912001546001600160a01b0316905081565b60065460ff16156103ec57604051637ad5c20d60e01b815260040160405180910390fd5b60045442101561040f5760405163cc76115360e01b815260040160405180910390fd5b60055460075410156104345760405163365485ef60e11b815260040160405180910390fd5b61043c610a20565b6008546040513031915f916001600160a01b039091169083908381818185875af1925050503d805f811461048b576040519150601f19603f3d011682016040523d82523d5f602084013e610490565b606091505b50509050806104d85760405162461bcd60e51b815260206004820152600f60248201526e151c985b9cd9995c8819985a5b1959608a1b60448201526064015b60405180910390fd5b600854604080516001600160a01b039092168252602082018490527feaff4b37086828766ad3268786972c0cd24259d4c87a80f9d3963a3c3d999b0d910160405180910390a15050565b6001805461052f90610c2f565b80601f016020809104026020016040519081016040528092919081815260200182805461055b90610c2f565b80156105a65780601f1061057d576101008083540402835291602001916105a6565b820191905f5260205f20905b81548152906001019060200180831161058957829003601f168201915b505050505081565b6105b6610a20565b6105bf5f610a4c565b565b6002805461052f90610c2f565b6003544210156105f1576040516333f44d6160e01b815260040160405180910390fd5b60045442106106135760405163154eb81560e21b815260040160405180910390fd5b60065460ff161561063757604051637ad5c20d60e01b815260040160405180910390fd5b6005546007541061065b5760405163653fd1bd60e01b815260040160405180910390fd5b610663610a20565b34806106825760405163820bf1e560e01b815260040160405180910390fd5b600554816007546106939190610c7b565b11156106b257604051632f7899c560e21b815260040160405180910390fd5b6001600160a01b0382165f908152600a602052604090205460ff16610736576001600160a01b0382165f818152600a60205260408120805460ff19166001908117909155600b805491820181559091527f0175b7a638427703f0dbe7bb9bbf987a2551717b34e79f33b5b1008d1fa01db90180546001600160a01b03191690911790555b6001600160a01b0382165f908152600960205260408120805483929061075d908490610c7b565b925050819055508060075f8282546107759190610c7b565b90915550506040518181526001600160a01b038316907f6770260ea820d2f539364e7617e021543aaf6d192f2fd2a47c20db6bd99a4eb99060200160405180910390a25050565b60065460ff16156107e057604051637ad5c20d60e01b815260040160405180910390fd5b600554600754106108045760405163653fd1bd60e01b815260040160405180910390fd5b60045442106108265760405163154eb81560e21b815260040160405180910390fd5b61082e610a20565b5f5b600b54811015610894575f600b828154811061084e5761084e610c94565b5f9182526020808320909101546001600160a01b0316808352600990915260409091205490915061087f8282610a9b565b5050808061088c90610ca8565b915050610830565b506006805460ff191660011790556040517fb83ebe09f40e9293bdea1d6567fae3175119d3d0ff13c4b4df15994837dd7f51905f90a1565b6108d4610a20565b6001600160a01b0381166108fd57604051631e4fbdf760e01b81525f60048201526024016104cf565b61090681610a4c565b50565b60045442101561092c5760405163cc76115360e01b815260040160405180910390fd5b600554600754106109505760405163653fd1bd60e01b815260040160405180910390fd5b610958610a20565b6001600160a01b038082165f8181526009602052604090205460085490921690036109e7575f5b600b548110156109e2575f600b828154811061099d5761099d610c94565b5f9182526020808320909101546001600160a01b031680835260099091526040909120549091506109cf908290610a9b565b50806109da81610ca8565b91505061097f565b505050565b6001600160a01b0382165f908152600a602052604090205460ff168015610a0d57505f81115b15610a1c57610a1c8282610a9b565b5050565b5f546001600160a01b031633146105bf5760405163118cdaa760e01b81523360048201526024016104cf565b5f80546001600160a01b038381166001600160a01b0319831681178455604051919092169283917f8be0079c531659141344cd1fd0a4f28419497f9722a3daafe3b4186f6b6457e09190a35050565b6001600160a01b0382165f9081526009602052604090205480156109e2576001600160a01b0383165f818152600960205260408082208290555190919083908381818185875af1925050503d805f8114610b10576040519150601f19603f3d011682016040523d82523d5f602084013e610b15565b606091505b5050905080610b585760405162461bcd60e51b815260206004820152600f60248201526e151c985b9cd9995c8819985a5b1959608a1b60448201526064016104cf565b604080516001600160a01b0386168152602081018590527fbb28353e4598c3b9199101a66e0989549b659a59a54d2c27fbb183f1932c8e6d910160405180910390a150505050565b5f60208284031215610bb0575f80fd5b81356001600160a01b0381168114610bc6575f80fd5b9392505050565b5f60208284031215610bdd575f80fd5b5035919050565b5f6020808352835180828501525f5b81811015610c0f57858101830151858201604001528201610bf3565b505f604082860101526040601f19601f8301168501019250505092915050565b600181811c90821680610c4357607f821691505b602082108103610c6157634e487b7160e01b5f52602260045260245ffd5b50919050565b634e487b7160e01b5f52601160045260245ffd5b80820180821115610c8e57610c8e610c67565b92915050565b634e487b7160e01b5f52603260045260245ffd5b5f60018201610cb957610cb9610c67565b506001019056fea264697066735822122063a208955d6a7e291aaeff46d87ec88244b861d87b0877594df8cb53b996745664736f6c63430008140033","linkReferences":{}},"methodIdentifiers":{"cancelCampaign()":"980e7844","contribute(address)":"73e888fd","contributed(address)":"995c5e9d","contributions(address)":"42e94c90","contributors(uint256)":"3cb5d100","creator()":"02d05d3f","description()":"7284e416","endDate()":"c24a0f8b","getContribution(address)":"21eff7fc","goal()":"40193883","isActive()":"22f3e2d4","isCanceled()":"0ed5a933","owner()":"8da5cb5b","refund(address)":"fa89401a","renounceOwnership()":"715018a6","startDate()":"0b97bc86","title()":"4a79d50c","totalEthContributed()":"cb282253","transferOwnership(address)":"f2fde38b","withdraw()":"3ccfd60b"},"id":22}