{"abi":[{"type":"function","name":"campaignCount","inputs":[],"outputs":[{"name":"","type":"uint256","internalType":"uint256"}],"stateMutability":"view"},{"type":"function","name":"campaigns","inputs":[{"name":"","type":"uint256","internalType":"uint256"}],"outputs":[{"name":"owner","type":"address","internalType":"address payable"},{"name":"goal","type":"uint256","internalType":"uint256"},{"name":"deadline","type":"uint256","internalType":"uint256"},{"name":"amountRaised","type":"uint256","internalType":"uint256"},{"name":"isFunded","type":"bool","internalType":"bool"}],"stateMutability":"view"},{"type":"function","name":"cancelCampaign","inputs":[{"name":"_id","type":"uint256","internalType":"uint256"}],"outputs":[],"stateMutability":"nonpayable"},{"type":"function","name":"contribute","inputs":[{"name":"_id","type":"uint256","internalType":"uint256"}],"outputs":[],"stateMutability":"payable"},{"type":"function","name":"contributions","inputs":[{"name":"","type":"uint256","internalType":"uint256"},{"name":"","type":"address","internalType":"address"}],"outputs":[{"name":"","type":"uint256","internalType":"uint256"}],"stateMutability":"view"},{"type":"function","name":"createCampaign","inputs":[{"name":"_goal","type":"uint256","internalType":"uint256"},{"name":"_duration","type":"uint256","internalType":"uint256"}],"outputs":[],"stateMutability":"nonpayable"},{"type":"function","name":"getContribution","inputs":[{"name":"_id","type":"uint256","internalType":"uint256"}],"outputs":[{"name":"","type":"uint256","internalType":"uint256"}],"stateMutability":"view"},{"type":"function","name":"isCanceled","inputs":[{"name":"","type":"uint256","internalType":"uint256"}],"outputs":[{"name":"","type":"bool","internalType":"bool"}],"stateMutability":"view"},{"type":"function","name":"refund","inputs":[{"name":"_id","type":"uint256","internalType":"uint256"}],"outputs":[],"stateMutability":"nonpayable"},{"type":"function","name":"withdraw","inputs":[{"name":"_id","type":"uint256","internalType":"uint256"}],"outputs":[],"stateMutability":"nonpayable"},{"type":"event","name":"CampaignCanceled","inputs":[{"name":"campaignId","type":"uint256","indexed":true,"internalType":"uint256"}],"anonymous":false},{"type":"event","name":"ContributionMade","inputs":[{"name":"campaignId","type":"uint256","indexed":true,"internalType":"uint256"},{"name":"contributor","type":"address","indexed":true,"internalType":"address"},{"name":"amount","type":"uint256","indexed":false,"internalType":"uint256"}],"anonymous":false},{"type":"event","name":"FundsWithdrawn","inputs":[{"name":"campaignId","type":"uint256","indexed":true,"internalType":"uint256"},{"name":"owner","type":"address","indexed":false,"internalType":"address"},{"name":"amount","type":"uint256","indexed":false,"internalType":"uint256"}],"anonymous":false},{"type":"error","name":"CampaignAlreadyCanceled","inputs":[]},{"type":"error","name":"CampaignAlreadyWithdrawn","inputs":[]},{"type":"error","name":"CampaignGoalNotReached","inputs":[]},{"type":"error","name":"CampaignGoalReached","inputs":[]},{"type":"error","name":"CampaignIsCanceled","inputs":[]},{"type":"error","name":"CampaignStillActive","inputs":[]},{"type":"error","name":"CannotWithdrawFunds","inputs":[]},{"type":"error","name":"OnlyOwnerCanCancel","inputs":[]},{"type":"error","name":"ThisCampaignIsClosed","inputs":[]}],"bytecode":{"object":"0x6080604052348015600f57600080fd5b5061088d8061001f6000396000f3fe6080604052600436106100915760003560e01c80633d891f59116100595780633d891f59146101c857806345598b4a1461020e5780637274e30d1461022e578063c1cbbca714610244578063cef422541461025757600080fd5b8063141961bc146100965780632250226814610126578063278ecde1146101485780632e1a7d4d1461016857806339e3af9b14610188575b600080fd5b3480156100a257600080fd5b506100ed6100b1366004610798565b600060208190529081526040902080546001820154600283015460038401546004909401546001600160a01b0390931693919290919060ff1685565b604080516001600160a01b03909616865260208601949094529284019190915260608301521515608082015260a0015b60405180910390f35b34801561013257600080fd5b506101466101413660046107b1565b61028f565b005b34801561015457600080fd5b50610146610163366004610798565b61033b565b34801561017457600080fd5b50610146610183366004610798565b61046a565b34801561019457600080fd5b506101b86101a3366004610798565b60016020526000908152604090205460ff1681565b604051901515815260200161011d565b3480156101d457600080fd5b506102006101e33660046107d3565b600260209081526000928352604080842090915290825290205481565b60405190815260200161011d565b34801561021a57600080fd5b50610146610229366004610798565b61057f565b34801561023a57600080fd5b5061020060035481565b610146610252366004610798565b61062e565b34801561026357600080fd5b50610200610272366004610798565b600090815260026020908152604080832033845290915290205490565b6003805490600061029f83610825565b90915550506040805160a081018252338152602081018490529081016102c5834261083e565b815260006020808301829052604092830182905260038054835282825291839020845181546001600160a01b0319166001600160a01b039091161781559084015160018201559183015160028301556060830151908201556080909101516004909101805460ff19169115159190911790555050565b60008181526020819052604090206002810154421180159061036c575060008281526001602052604090205460ff16155b1561038a57604051634e5b565b60e11b815260040160405180910390fd5b80600101548160030154106103b25760405163653fd1bd60e01b815260040160405180910390fd5b60008281526002602090815260408083203384529091529020548061041e5760405162461bcd60e51b815260206004820152601a60248201527f4e6f20636f6e747269627574696f6e7320746f20726566756e6400000000000060448201526064015b60405180910390fd5b600083815260026020908152604080832033808552925280832083905551909183156108fc02918491818181858888f19350505050158015610464573d6000803e3d6000fd5b50505050565b600081815260208190526040902080546001600160a01b031633146104a25760405163120dfe5960e01b815260040160405180910390fd5b8060010154816003015410156104cb5760405163365485ef60e11b815260040160405180910390fd5b600481015460ff16156104f15760405163a2dc7a3d60e01b815260040160405180910390fd5b60048101805460ff19166001179055600381015481546040516001600160a01b039091169082156108fc029083906000818181858888f1935050505015801561053e573d6000803e3d6000fd5b50604080513381526020810183905284917ff440aec6b52895984d061d622e6edeba6210f7c3e059be920663140c084560d7910160405180910390a2505050565b600081815260208190526040902080546001600160a01b031633146105b75760405163112dcfdd60e31b815260040160405180910390fd5b60008281526001602052604090205460ff16156105e757604051631438aa9360e01b815260040160405180910390fd5b6000828152600160208190526040808320805460ff19169092179091555183917f1925581c2be6a6ef3cd786635d86c841eb4bbdb051dce32356a44c457d03499891a25050565b6000818152602081905260409020600281015482919042118061065957508060010154816003015410155b1561067757604051639be7409b60e01b815260040160405180910390fd5b600083815260016020526040902054839060ff16156106a957604051637ad5c20d60e01b815260040160405180910390fd5b6000848152602081905260409020346107135760405162461bcd60e51b815260206004820152602660248201527f436f6e747269627574696f6e206d7573742062652067726561746572207468616044820152656e207a65726f60d01b6064820152608401610415565b34816003016000828254610727919061083e565b909155505060008581526002602090815260408083203384529091528120805434929061075590849061083e565b9091555050604051348152339086907f0a4a91237423e0a1766a761c7cb029311d8b95d6b1b81db1b949a70c98b4e08e9060200160405180910390a35050505050565b6000602082840312156107aa57600080fd5b5035919050565b600080604083850312156107c457600080fd5b50508035926020909101359150565b600080604083850312156107e657600080fd5b8235915060208301356001600160a01b038116811461080457600080fd5b809150509250929050565b634e487b7160e01b600052601160045260246000fd5b6000600182016108375761083761080f565b5060010190565b808201808211156108515761085161080f565b9291505056fea2646970667358221220b0270092ce54b05ad5475c7a63efd1d96447af7df9b6064b3440b5100dcd400f64736f6c634300081a0033","linkReferences":{}},"methodIdentifiers":{"campaignCount()":"7274e30d","campaigns(uint256)":"141961bc","cancelCampaign(uint256)":"45598b4a","contribute(uint256)":"c1cbbca7","contributions(uint256,address)":"3d891f59","createCampaign(uint256,uint256)":"22502268","getContribution(uint256)":"cef42254","isCanceled(uint256)":"39e3af9b","refund(uint256)":"278ecde1","withdraw(uint256)":"2e1a7d4d"},"id":20}