{"abi":[{"type":"function","name":"campaignAddressToId","inputs":[{"name":"","type":"address","internalType":"address"}],"outputs":[{"name":"","type":"uint256","internalType":"uint256"}],"stateMutability":"view"},{"type":"function","name":"campaigns","inputs":[{"name":"","type":"uint256","internalType":"uint256"}],"outputs":[{"name":"campaignAddress","type":"address","internalType":"address"},{"name":"title","type":"string","internalType":"string"},{"name":"startDate","type":"uint256","internalType":"uint256"},{"name":"endDate","type":"uint256","internalType":"uint256"},{"name":"goal","type":"uint256","internalType":"uint256"},{"name":"isCanceled","type":"bool","internalType":"bool"},{"name":"totalEthContributed","type":"uint256","internalType":"uint256"},{"name":"creator","type":"address","internalType":"address"}],"stateMutability":"view"},{"type":"function","name":"cancelCampaign","inputs":[{"name":"_id","type":"uint256","internalType":"uint256"}],"outputs":[],"stateMutability":"nonpayable"},{"type":"function","name":"contribute","inputs":[{"name":"_id","type":"uint256","internalType":"uint256"}],"outputs":[],"stateMutability":"payable"},{"type":"function","name":"createCampaign","inputs":[{"name":"_title","type":"string","internalType":"string"},{"name":"_startDate","type":"uint256","internalType":"uint256"},{"name":"_endDate","type":"uint256","internalType":"uint256"},{"name":"_goal","type":"uint256","internalType":"uint256"}],"outputs":[{"name":"","type":"address","internalType":"address"}],"stateMutability":"nonpayable"},{"type":"function","name":"creatorCampaigns","inputs":[{"name":"","type":"address","internalType":"address"},{"name":"","type":"uint256","internalType":"uint256"}],"outputs":[{"name":"","type":"uint256","internalType":"uint256"}],"stateMutability":"view"},{"type":"function","name":"getAllCampaigns","inputs":[],"outputs":[{"name":"","type":"tuple[]","internalType":"struct CampaignPreview[]","components":[{"name":"campaignAddress","type":"address","internalType":"address"},{"name":"title","type":"string","internalType":"string"},{"name":"startDate","type":"uint256","internalType":"uint256"},{"name":"endDate","type":"uint256","internalType":"uint256"},{"name":"goal","type":"uint256","internalType":"uint256"},{"name":"isCanceled","type":"bool","internalType":"bool"},{"name":"totalEthContributed","type":"uint256","internalType":"uint256"},{"name":"creator","type":"address","internalType":"address"}]}],"stateMutability":"view"},{"type":"function","name":"getCampaignsByCreator","inputs":[{"name":"_creator","type":"address","internalType":"address"}],"outputs":[{"name":"","type":"tuple[]","internalType":"struct CampaignPreview[]","components":[{"name":"campaignAddress","type":"address","internalType":"address"},{"name":"title","type":"string","internalType":"string"},{"name":"startDate","type":"uint256","internalType":"uint256"},{"name":"endDate","type":"uint256","internalType":"uint256"},{"name":"goal","type":"uint256","internalType":"uint256"},{"name":"isCanceled","type":"bool","internalType":"bool"},{"name":"totalEthContributed","type":"uint256","internalType":"uint256"},{"name":"creator","type":"address","internalType":"address"}]}],"stateMutability":"view"},{"type":"function","name":"getCampaignsCount","inputs":[],"outputs":[{"name":"","type":"uint256","internalType":"uint256"}],"stateMutability":"view"},{"type":"function","name":"isActive","inputs":[{"name":"campaign","type":"address","internalType":"contract Campaign"}],"outputs":[{"name":"","type":"bool","internalType":"bool"}],"stateMutability":"view"},{"type":"function","name":"refund","inputs":[{"name":"_campaign","type":"address","internalType":"contract Campaign"}],"outputs":[],"stateMutability":"nonpayable"},{"type":"function","name":"withdraw","inputs":[{"name":"_id","type":"uint256","internalType":"uint256"}],"outputs":[],"stateMutability":"nonpayable"},{"type":"event","name":"CampaignCanceled","inputs":[{"name":"campaign","type":"address","indexed":true,"internalType":"address"}],"anonymous":false},{"type":"event","name":"CampaignCreated","inputs":[{"name":"campaignAddress","type":"address","indexed":true,"internalType":"address"},{"name":"creator","type":"address","indexed":true,"internalType":"address"}],"anonymous":false},{"type":"event","name":"ContributionMade","inputs":[{"name":"campaign","type":"address","indexed":true,"internalType":"address"},{"name":"contributor","type":"address","indexed":true,"internalType":"address"},{"name":"amount","type":"uint256","indexed":false,"internalType":"uint256"}],"anonymous":false},{"type":"event","name":"FundsWithdrawn","inputs":[{"name":"campaign","type":"address","indexed":true,"internalType":"address"},{"name":"owner","type":"address","indexed":false,"internalType":"address"},{"name":"amount","type":"uint256","indexed":false,"internalType":"uint256"}],"anonymous":false},{"type":"error","name":"AccessDenied","inputs":[]}],"bytecode":{"object":"0x608060405234801561000f575f80fd5b506123fa8061001d5f395ff3fe608060405260043610620000b3575f3560e01c80639f8a13d7116200006a5780639f8a13d714620001bd578063b5a898ae14620001f2578063c1cbbca7146200022f578063d5b8d84a1462000246578063ddc8af61146200026a578063fa89401a146200028e575f80fd5b8063141961bc14620000b75780631b0e2edc14620000fa5780632e1a7d4d146200013857806345598b4a146200015e5780637e6253da146200018257806386cdf6041462000197575b5f80fd5b348015620000c3575f80fd5b50620000db620000d536600462000e83565b620002b2565b604051620000f198979695949392919062000ee0565b60405180910390f35b34801562000106575f80fd5b50620001296200011836600462000f55565b60026020525f908152604090205481565b604051908152602001620000f1565b34801562000144575f80fd5b506200015c6200015636600462000e83565b620003ab565b005b3480156200016a575f80fd5b506200015c6200017c36600462000e83565b620005ba565b3480156200018e575f80fd5b505f5462000129565b348015620001a3575f80fd5b50620001ae620006bc565b604051620000f1919062000f7a565b348015620001c9575f80fd5b50620001e1620001db36600462000f55565b62000819565b6040519015158152602001620000f1565b348015620001fe575f80fd5b5062000216620002103660046200105a565b62000883565b6040516001600160a01b039091168152602001620000f1565b6200015c6200024036600462000e83565b62000a6b565b34801562000252575f80fd5b50620001ae6200026436600462000f55565b62000b51565b34801562000276575f80fd5b50620001296200028836600462001122565b62000df0565b3480156200029a575f80fd5b506200015c620002ac36600462000f55565b62000e1c565b5f8181548110620002c1575f80fd5b5f918252602090912060089091020180546001820180546001600160a01b03909216935090620002f1906200114f565b80601f01602080910402602001604051908101604052809291908181526020018280546200031f906200114f565b80156200036e5780601f1062000344576101008083540402835291602001916200036e565b820191905f5260205f20905b8154815290600101906020018083116200035057829003601f168201915b505050600284015460038501546004860154600587015460068801546007909801549697939692955090935060ff1691906001600160a01b031688565b5f3390505f808381548110620003c557620003c562001189565b5f91825260209182902060408051610100810190915260089092020180546001600160a01b03168252600181018054929391929184019162000407906200114f565b80601f016020809104026020016040519081016040528092919081815260200182805462000435906200114f565b8015620004845780601f106200045a5761010080835404028352916020019162000484565b820191905f5260205f20905b8154815290600101906020018083116200046657829003601f168201915b5050509183525050600282015460208201526003820154604082015260048201546060820152600582015460ff1615156080820152600682015460a08201526007909101546001600160a01b0390811660c09092019190915260e08201519192508381169116146200050957604051634ca8886760e01b815260040160405180910390fd5b5f815f01516001600160a01b0316319050815f01516001600160a01b0316633ccfd60b6040518163ffffffff1660e01b81526004015f604051808303815f87803b15801562000556575f80fd5b505af115801562000569573d5f803e3d5ffd5b50508351604080516001600160a01b038881168252602082018790528251931694507fa92ff919b850e4909ab2261d907ef955f11bc1716733a6cbece38d163a69af8a93508290030190a250505050565b5f3390505f808381548110620005d457620005d462001189565b5f918252602090912060089091020160078101549091506001600160a01b038381169116146200061757604051634ca8886760e01b815260040160405180910390fd5b8054604080516326039e1160e21b815290516001600160a01b039092169163980e7844916004808201925f9290919082900301818387803b1580156200065b575f80fd5b505af11580156200066e573d5f803e3d5ffd5b50505060058201805460ff191660011790555080546040516001600160a01b03909116907f3be3cf8b79824600b33b84642199163dc824bc8afdc691d0bcd8a849e39f92fc905f90a2505050565b60605f805480602002602001604051908101604052809291908181526020015f905b8282101562000810575f8481526020908190206040805161010081019091526008850290910180546001600160a01b0316825260018101805492939192918401916200072a906200114f565b80601f016020809104026020016040519081016040528092919081815260200182805462000758906200114f565b8015620007a75780601f106200077d57610100808354040283529160200191620007a7565b820191905f5260205f20905b8154815290600101906020018083116200078957829003601f168201915b505050918352505060028201546020808301919091526003830154604083015260048301546060830152600583015460ff1615156080830152600683015460a08301526007909201546001600160a01b031660c0909101529082526001929092019101620006de565b50505050905090565b5f816001600160a01b03166322f3e2d46040518163ffffffff1660e01b8152600401602060405180830381865afa15801562000857573d5f803e3d5ffd5b505050506040513d601f19601f820116820180604052508101906200087d91906200119d565b92915050565b5f803390505f86868686856040516200089c9062000e75565b620008ac959493929190620011be565b604051809103905ff080158015620008c6573d5f803e3d5ffd5b5060408051610100810182526001600160a01b038381168252602082018b81529282018a905260608201899052608082018890525f60a0830181905260c0830181905286821660e0840152805460018101825590805282517f290decd9548b62a8d60345a988386fc84ba6bc95484008f6362f93160ef3e5636008830290810180546001600160a01b0319169290941691909117835593519495509193919284927f290decd9548b62a8d60345a988386fc84ba6bc95484008f6362f93160ef3e5649091019062000998908262001251565b50604082810151600283810191909155606084015160038401556080840151600484015560a084015160058401805460ff191691151591909117905560c0840151600684015560e090930151600790920180546001600160a01b0319166001600160a01b039384161790558682165f818152600160208181528483208054928301815583528083209091018790559388168082529490935281832085905590519092917f6056366dba45431fd6a8854ad9f2594942b02c4f2c3f6fbc329b3079b027b8b491a35090979650505050505050565b5f3490505f80838154811062000a855762000a8562001189565b5f918252602090912060089091020180546040516373e888fd60e01b81523360048201529192506001600160a01b0316906373e888fd9084906024015f604051808303818588803b15801562000ad9575f80fd5b505af115801562000aec573d5f803e3d5ffd5b505050505081816006015f82825462000b0691906200132e565b9091555050805460405183815233916001600160a01b0316907fef854c845b6942bd35c71832198081ff8567d6adc6cf8eb1ecf7e1bb697db80c9060200160405180910390a3505050565b6001600160a01b0381165f90815260016020908152604080832080548251818502810185019093528083526060949383018282801562000baf57602002820191905f5260205f20905b81548152602001906001019080831162000b9a575b505050505090505f815167ffffffffffffffff81111562000bd45762000bd462001046565b60405190808252806020026020018201604052801562000c5d57816020015b62000c496040518061010001604052805f6001600160a01b03168152602001606081526020015f81526020015f81526020015f81526020015f151581526020015f81526020015f6001600160a01b031681525090565b81526020019060019003908162000bf35790505b5090505f5b825181101562000de8575f83828151811062000c825762000c8262001189565b60200260200101518154811062000c9d5762000c9d62001189565b5f91825260209182902060408051610100810190915260089092020180546001600160a01b03168252600181018054929391929184019162000cdf906200114f565b80601f016020809104026020016040519081016040528092919081815260200182805462000d0d906200114f565b801562000d5c5780601f1062000d325761010080835404028352916020019162000d5c565b820191905f5260205f20905b81548152906001019060200180831162000d3e57829003601f168201915b5050509183525050600282015460208201526003820154604082015260048201546060820152600582015460ff1615156080820152600682015460a08201526007909101546001600160a01b031660c090910152825183908390811062000dc75762000dc762001189565b6020026020010181905250808062000ddf9062001344565b91505062000c62565b509392505050565b6001602052815f5260405f20818154811062000e0a575f80fd5b905f5260205f20015f91509150505481565b604051637d44a00d60e11b81523360048201526001600160a01b0382169063fa89401a906024015f604051808303815f87803b15801562000e5b575f80fd5b505af115801562000e6e573d5f803e3d5ffd5b5050505050565b611065806200136083390190565b5f6020828403121562000e94575f80fd5b5035919050565b5f81518084525f5b8181101562000ec15760208185018101518683018201520162000ea3565b505f602082860101526020601f19601f83011685010191505092915050565b6001600160a01b038981168252610100602083018190525f9162000f078483018c62000e9b565b604085019a909a5260608401989098525050608081019490945291151560a084015260c083015290911660e09091015292915050565b6001600160a01b038116811462000f52575f80fd5b50565b5f6020828403121562000f66575f80fd5b813562000f738162000f3d565b9392505050565b5f6020808301818452808551808352604092508286019150828160051b8701018488015f5b838110156200103857888303603f19018552815180516001600160a01b03168452878101516101008986018190529062000fdc8287018262000e9b565b838a0151878b0152606080850151908801526080808501519088015260a08085015115159088015260c0808501519088015260e0938401516001600160a01b031693909601929092525050938601939086019060010162000f9f565b509098975050505050505050565b634e487b7160e01b5f52604160045260245ffd5b5f805f80608085870312156200106e575f80fd5b843567ffffffffffffffff8082111562001086575f80fd5b818701915087601f8301126200109a575f80fd5b813581811115620010af57620010af62001046565b604051601f8201601f19908116603f01168101908382118183101715620010da57620010da62001046565b816040528281528a6020848701011115620010f3575f80fd5b826020860160208301375f60209382018401529a91890135995050604088013597606001359650945050505050565b5f806040838503121562001134575f80fd5b8235620011418162000f3d565b946020939093013593505050565b600181811c908216806200116457607f821691505b6020821081036200118357634e487b7160e01b5f52602260045260245ffd5b50919050565b634e487b7160e01b5f52603260045260245ffd5b5f60208284031215620011ae575f80fd5b8151801515811462000f73575f80fd5b60a081525f620011d260a083018862000e9b565b602083019690965250604081019390935260608301919091526001600160a01b0316608090910152919050565b601f8211156200124c575f81815260208120601f850160051c81016020861015620012275750805b601f850160051c820191505b81811015620012485782815560010162001233565b5050505b505050565b815167ffffffffffffffff8111156200126e576200126e62001046565b62001286816200127f84546200114f565b84620011ff565b602080601f831160018114620012bc575f8415620012a45750858301515b5f19600386901b1c1916600185901b17855562001248565b5f85815260208120601f198616915b82811015620012ec57888601518255948401946001909101908401620012cb565b50858210156200130a57878501515f19600388901b60f8161c191681555b5050505050600190811b01905550565b634e487b7160e01b5f52601160045260245ffd5b808201808211156200087d576200087d6200131a565b5f600182016200135857620013586200131a565b506001019056fe608060405234801562000010575f80fd5b50604051620010653803806200106583398101604081905262000033916200013d565b33806200005957604051631e4fbdf760e01b81525f600482015260240160405180910390fd5b6200006481620000be565b506001620000738682620002c5565b50600293909355600391909155600455600780546005805460ff191690555f6006556001600160a01b031990811633909116176001600160a01b03909216919091179055506200038d565b5f80546001600160a01b038381166001600160a01b0319831681178455604051919092169283917f8be0079c531659141344cd1fd0a4f28419497f9722a3daafe3b4186f6b6457e09190a35050565b634e487b7160e01b5f52604160045260245ffd5b80516001600160a01b038116811462000138575f80fd5b919050565b5f805f805f60a0868803121562000152575f80fd5b85516001600160401b038082111562000169575f80fd5b818801915088601f8301126200017d575f80fd5b8151818111156200019257620001926200010d565b604051601f8201601f19908116603f01168101908382118183101715620001bd57620001bd6200010d565b81604052828152602093508b84848701011115620001d9575f80fd5b5f91505b82821015620001fc5784820184015181830185015290830190620001dd565b5f848483010152809950505050808801519550505060408601519250606086015191506200022d6080870162000121565b90509295509295909350565b600181811c908216806200024e57607f821691505b6020821081036200026d57634e487b7160e01b5f52602260045260245ffd5b50919050565b601f821115620002c0575f81815260208120601f850160051c810160208610156200029b5750805b601f850160051c820191505b81811015620002bc57828155600101620002a7565b5050505b505050565b81516001600160401b03811115620002e157620002e16200010d565b620002f981620002f2845462000239565b8462000273565b602080601f8311600181146200032f575f8415620003175750858301515b5f19600386901b1c1916600185901b178555620002bc565b5f85815260208120601f198616915b828110156200035f578886015182559484019460019091019084016200033e565b50858210156200037d57878501515f19600388901b60f8161c191681555b5050505050600190811b01905550565b610cca806200039b5f395ff3fe608060405260043610610110575f3560e01c80634a79d50c1161009d578063995c5e9d11610062578063995c5e9d146102d1578063c24a0f8b146102ff578063cb28225314610314578063f2fde38b14610329578063fa89401a14610348575f80fd5b80634a79d50c14610259578063715018a61461027a57806373e888fd1461028e5780638da5cb5b146102a1578063980e7844146102bd575f80fd5b806322f3e2d4116100e357806322f3e2d4146101d05780633cb5d100146101e45780633ccfd60b14610203578063401938831461021957806342e94c901461022e575f80fd5b806302d05d3f146101145780630b97bc86146101505780630ed5a9331461017357806321eff7fc1461019c575b5f80fd5b34801561011f575f80fd5b50600754610133906001600160a01b031681565b6040516001600160a01b0390911681526020015b60405180910390f35b34801561015b575f80fd5b5061016560025481565b604051908152602001610147565b34801561017e575f80fd5b5060055461018c9060ff1681565b6040519015158152602001610147565b3480156101a7575f80fd5b506101656101b6366004610b74565b6001600160a01b03165f9081526008602052604090205490565b3480156101db575f80fd5b5061018c610367565b3480156101ef575f80fd5b506101336101fe366004610ba1565b610381565b34801561020e575f80fd5b506102176103a9565b005b348015610224575f80fd5b5061016560045481565b348015610239575f80fd5b50610165610248366004610b74565b60086020525f908152604090205481565b348015610264575f80fd5b5061026d610503565b6040516101479190610bb8565b348015610285575f80fd5b5061021761058f565b61021761029c366004610b74565b6105a2565b3480156102ac575f80fd5b505f546001600160a01b0316610133565b3480156102c8575f80fd5b50610217610790565b3480156102dc575f80fd5b5061018c6102eb366004610b74565b60096020525f908152604090205460ff1681565b34801561030a575f80fd5b5061016560035481565b34801561031f575f80fd5b5061016560065481565b348015610334575f80fd5b50610217610343366004610b74565b6108a0565b348015610353575f80fd5b50610217610362366004610b74565b6108dd565b5f6003544211801561037c575060055460ff16155b905090565b600a8181548110610390575f80fd5b5f918252602090912001546001600160a01b0316905081565b60055460ff16156103cd57604051637ad5c20d60e01b815260040160405180910390fd5b6003544210156103f05760405163cc76115360e01b815260040160405180910390fd5b60045460065410156104155760405163365485ef60e11b815260040160405180910390fd5b61041d6109f4565b6007546040513031915f916001600160a01b039091169083908381818185875af1925050503d805f811461046c576040519150601f19603f3d011682016040523d82523d5f602084013e610471565b606091505b50509050806104b95760405162461bcd60e51b815260206004820152600f60248201526e151c985b9cd9995c8819985a5b1959608a1b60448201526064015b60405180910390fd5b600754604080516001600160a01b039092168252602082018490527feaff4b37086828766ad3268786972c0cd24259d4c87a80f9d3963a3c3d999b0d910160405180910390a15050565b6001805461051090610c03565b80601f016020809104026020016040519081016040528092919081815260200182805461053c90610c03565b80156105875780601f1061055e57610100808354040283529160200191610587565b820191905f5260205f20905b81548152906001019060200180831161056a57829003601f168201915b505050505081565b6105976109f4565b6105a05f610a20565b565b6002544210156105c5576040516333f44d6160e01b815260040160405180910390fd5b60035442106105e75760405163154eb81560e21b815260040160405180910390fd5b60055460ff161561060b57604051637ad5c20d60e01b815260040160405180910390fd5b6004546006541061062f5760405163653fd1bd60e01b815260040160405180910390fd5b6106376109f4565b34806106565760405163820bf1e560e01b815260040160405180910390fd5b600454816006546106679190610c4f565b111561068657604051632f7899c560e21b815260040160405180910390fd5b6001600160a01b0382165f9081526009602052604090205460ff1661070a576001600160a01b0382165f818152600960205260408120805460ff19166001908117909155600a805491820181559091527fc65a7bb8d6351c1cf70c95a316cc6a92839c986682d98bc35f958f4883f9d2a80180546001600160a01b03191690911790555b6001600160a01b0382165f9081526008602052604081208054839290610731908490610c4f565b925050819055508060065f8282546107499190610c4f565b90915550506040518181526001600160a01b038316907f6770260ea820d2f539364e7617e021543aaf6d192f2fd2a47c20db6bd99a4eb99060200160405180910390a25050565b60055460ff16156107b457604051637ad5c20d60e01b815260040160405180910390fd5b600454600654106107d85760405163653fd1bd60e01b815260040160405180910390fd5b60035442106107fa5760405163154eb81560e21b815260040160405180910390fd5b6108026109f4565b5f5b600a54811015610868575f600a828154811061082257610822610c68565b5f9182526020808320909101546001600160a01b031680835260089091526040909120549091506108538282610a6f565b5050808061086090610c7c565b915050610804565b506005805460ff191660011790556040517fb83ebe09f40e9293bdea1d6567fae3175119d3d0ff13c4b4df15994837dd7f51905f90a1565b6108a86109f4565b6001600160a01b0381166108d157604051631e4fbdf760e01b81525f60048201526024016104b0565b6108da81610a20565b50565b6003544210156109005760405163cc76115360e01b815260040160405180910390fd5b600454600654106109245760405163653fd1bd60e01b815260040160405180910390fd5b61092c6109f4565b6001600160a01b038082165f8181526008602052604090205460075490921690036109bb575f5b600a548110156109b6575f600a828154811061097157610971610c68565b5f9182526020808320909101546001600160a01b031680835260089091526040909120549091506109a3908290610a6f565b50806109ae81610c7c565b915050610953565b505050565b6001600160a01b0382165f9081526009602052604090205460ff1680156109e157505f81115b156109f0576109f08282610a6f565b5050565b5f546001600160a01b031633146105a05760405163118cdaa760e01b81523360048201526024016104b0565b5f80546001600160a01b038381166001600160a01b0319831681178455604051919092169283917f8be0079c531659141344cd1fd0a4f28419497f9722a3daafe3b4186f6b6457e09190a35050565b6001600160a01b0382165f9081526008602052604090205480156109b6576001600160a01b0383165f818152600860205260408082208290555190919083908381818185875af1925050503d805f8114610ae4576040519150601f19603f3d011682016040523d82523d5f602084013e610ae9565b606091505b5050905080610b2c5760405162461bcd60e51b815260206004820152600f60248201526e151c985b9cd9995c8819985a5b1959608a1b60448201526064016104b0565b604080516001600160a01b0386168152602081018590527fbb28353e4598c3b9199101a66e0989549b659a59a54d2c27fbb183f1932c8e6d910160405180910390a150505050565b5f60208284031215610b84575f80fd5b81356001600160a01b0381168114610b9a575f80fd5b9392505050565b5f60208284031215610bb1575f80fd5b5035919050565b5f6020808352835180828501525f5b81811015610be357858101830151858201604001528201610bc7565b505f604082860101526040601f19601f8301168501019250505092915050565b600181811c90821680610c1757607f821691505b602082108103610c3557634e487b7160e01b5f52602260045260245ffd5b50919050565b634e487b7160e01b5f52601160045260245ffd5b80820180821115610c6257610c62610c3b565b92915050565b634e487b7160e01b5f52603260045260245ffd5b5f60018201610c8d57610c8d610c3b565b506001019056fea2646970667358221220516f03735e66a41577aa53c0f72719b362e2b66d3ca5159bf77d2b7be3e6e0f464736f6c63430008140033a2646970667358221220ee25147d82084c187676d99f379016dc07f32fcd1e9f677ad38fac7e983143a464736f6c63430008140033","linkReferences":{}},"methodIdentifiers":{"campaignAddressToId(address)":"1b0e2edc","campaigns(uint256)":"141961bc","cancelCampaign(uint256)":"45598b4a","contribute(uint256)":"c1cbbca7","createCampaign(string,uint256,uint256,uint256)":"b5a898ae","creatorCampaigns(address,uint256)":"ddc8af61","getAllCampaigns()":"86cdf604","getCampaignsByCreator(address)":"d5b8d84a","getCampaignsCount()":"7e6253da","isActive(address)":"9f8a13d7","refund(address)":"fa89401a","withdraw(uint256)":"2e1a7d4d"},"id":28}