{"abi":[{"type":"function","name":"campaignAddressToId","inputs":[{"name":"","type":"address","internalType":"address"}],"outputs":[{"name":"","type":"uint256","internalType":"uint256"}],"stateMutability":"view"},{"type":"function","name":"campaigns","inputs":[{"name":"","type":"uint256","internalType":"uint256"}],"outputs":[{"name":"campaignAddress","type":"address","internalType":"address"},{"name":"title","type":"string","internalType":"string"},{"name":"description","type":"string","internalType":"string"},{"name":"startDate","type":"uint256","internalType":"uint256"},{"name":"endDate","type":"uint256","internalType":"uint256"},{"name":"goal","type":"uint256","internalType":"uint256"},{"name":"isCanceled","type":"bool","internalType":"bool"},{"name":"totalEthContributed","type":"uint256","internalType":"uint256"},{"name":"creator","type":"address","internalType":"address"}],"stateMutability":"view"},{"type":"function","name":"cancelCampaign","inputs":[{"name":"_id","type":"uint256","internalType":"uint256"}],"outputs":[],"stateMutability":"nonpayable"},{"type":"function","name":"contribute","inputs":[{"name":"_id","type":"uint256","internalType":"uint256"}],"outputs":[],"stateMutability":"payable"},{"type":"function","name":"createCampaign","inputs":[{"name":"_title","type":"string","internalType":"string"},{"name":"_description","type":"string","internalType":"string"},{"name":"_startDate","type":"uint256","internalType":"uint256"},{"name":"_endDate","type":"uint256","internalType":"uint256"},{"name":"_goal","type":"uint256","internalType":"uint256"}],"outputs":[{"name":"","type":"address","internalType":"address"}],"stateMutability":"nonpayable"},{"type":"function","name":"creatorCampaigns","inputs":[{"name":"","type":"address","internalType":"address"},{"name":"","type":"uint256","internalType":"uint256"}],"outputs":[{"name":"","type":"uint256","internalType":"uint256"}],"stateMutability":"view"},{"type":"function","name":"getAllCampaigns","inputs":[],"outputs":[{"name":"","type":"tuple[]","internalType":"struct CampaignPreview[]","components":[{"name":"campaignAddress","type":"address","internalType":"address"},{"name":"title","type":"string","internalType":"string"},{"name":"description","type":"string","internalType":"string"},{"name":"startDate","type":"uint256","internalType":"uint256"},{"name":"endDate","type":"uint256","internalType":"uint256"},{"name":"goal","type":"uint256","internalType":"uint256"},{"name":"isCanceled","type":"bool","internalType":"bool"},{"name":"totalEthContributed","type":"uint256","internalType":"uint256"},{"name":"creator","type":"address","internalType":"address"}]}],"stateMutability":"view"},{"type":"function","name":"getCampaignsByCreator","inputs":[{"name":"_creator","type":"address","internalType":"address"}],"outputs":[{"name":"","type":"tuple[]","internalType":"struct CampaignPreview[]","components":[{"name":"campaignAddress","type":"address","internalType":"address"},{"name":"title","type":"string","internalType":"string"},{"name":"description","type":"string","internalType":"string"},{"name":"startDate","type":"uint256","internalType":"uint256"},{"name":"endDate","type":"uint256","internalType":"uint256"},{"name":"goal","type":"uint256","internalType":"uint256"},{"name":"isCanceled","type":"bool","internalType":"bool"},{"name":"totalEthContributed","type":"uint256","internalType":"uint256"},{"name":"creator","type":"address","internalType":"address"}]}],"stateMutability":"view"},{"type":"function","name":"getCampaignsCount","inputs":[],"outputs":[{"name":"","type":"uint256","internalType":"uint256"}],"stateMutability":"view"},{"type":"function","name":"isActive","inputs":[{"name":"campaign","type":"address","internalType":"contract Campaign"}],"outputs":[{"name":"","type":"bool","internalType":"bool"}],"stateMutability":"view"},{"type":"function","name":"refund","inputs":[{"name":"_campaign","type":"address","internalType":"contract Campaign"}],"outputs":[],"stateMutability":"nonpayable"},{"type":"function","name":"withdraw","inputs":[{"name":"_id","type":"uint256","internalType":"uint256"}],"outputs":[],"stateMutability":"nonpayable"},{"type":"event","name":"CampaignCanceled","inputs":[{"name":"campaign","type":"address","indexed":true,"internalType":"address"}],"anonymous":false},{"type":"event","name":"CampaignCreated","inputs":[{"name":"campaignAddress","type":"address","indexed":true,"internalType":"address"},{"name":"creator","type":"address","indexed":true,"internalType":"address"}],"anonymous":false},{"type":"event","name":"ContributionMade","inputs":[{"name":"campaign","type":"address","indexed":true,"internalType":"address"},{"name":"contributor","type":"address","indexed":true,"internalType":"address"},{"name":"amount","type":"uint256","indexed":false,"internalType":"uint256"}],"anonymous":false},{"type":"event","name":"FundsWithdrawn","inputs":[{"name":"campaign","type":"address","indexed":true,"internalType":"address"},{"name":"owner","type":"address","indexed":false,"internalType":"address"},{"name":"amount","type":"uint256","indexed":false,"internalType":"uint256"}],"anonymous":false},{"type":"error","name":"AccessDenied","inputs":[]}],"bytecode":{"object":"0x6080604052348015600e575f5ffd5b5061407c8061001c5f395ff3fe6080604052600436106100a6575f3560e01c80639f8a13d7116100635780639f8a13d7146101ce578063b5c892191461020a578063c1cbbca714610246578063d5b8d84a14610262578063ddc8af611461029e578063fa89401a146102da576100a6565b8063141961bc146100aa5780631b0e2edc146100ee5780632e1a7d4d1461012a57806345598b4a146101525780637e6253da1461017a57806386cdf604146101a4575b5f5ffd5b3480156100b5575f5ffd5b506100d060048036038101906100cb91906115f3565b610302565b6040516100e5999897969594939291906116f6565b60405180910390f35b3480156100f9575f5ffd5b50610114600480360381019061010f91906117b9565b6104b0565b60405161012191906117e4565b60405180910390f35b348015610135575f5ffd5b50610150600480360381019061014b91906115f3565b6104c5565b005b34801561015d575f5ffd5b50610178600480360381019061017391906115f3565b610841565b005b348015610185575f5ffd5b5061018e6109f2565b60405161019b91906117e4565b60405180910390f35b3480156101af575f5ffd5b506101b86109fd565b6040516101c591906119f6565b60405180910390f35b3480156101d9575f5ffd5b506101f460048036038101906101ef9190611a51565b610c64565b6040516102019190611a7c565b60405180910390f35b348015610215575f5ffd5b50610230600480360381019061022b9190611bc1565b610cd9565b60405161023d9190611c70565b60405180910390f35b610260600480360381019061025b91906115f3565b610fca565b005b34801561026d575f5ffd5b50610288600480360381019061028391906117b9565b611120565b60405161029591906119f6565b60405180910390f35b3480156102a9575f5ffd5b506102c460048036038101906102bf9190611c89565b61149b565b6040516102d191906117e4565b60405180910390f35b3480156102e5575f5ffd5b5061030060048036038101906102fb9190611a51565b6114c6565b005b5f8181548110610310575f80fd5b905f5260205f2090600902015f91509050805f015f9054906101000a900473ffffffffffffffffffffffffffffffffffffffff169080600101805461035490611cf4565b80601f016020809104026020016040519081016040528092919081815260200182805461038090611cf4565b80156103cb5780601f106103a2576101008083540402835291602001916103cb565b820191905f5260205f20905b8154815290600101906020018083116103ae57829003601f168201915b5050505050908060020180546103e090611cf4565b80601f016020809104026020016040519081016040528092919081815260200182805461040c90611cf4565b80156104575780601f1061042e57610100808354040283529160200191610457565b820191905f5260205f20905b81548152906001019060200180831161043a57829003601f168201915b505050505090806003015490806004015490806005015490806006015f9054906101000a900460ff1690806007015490806008015f9054906101000a900473ffffffffffffffffffffffffffffffffffffffff16905089565b6002602052805f5260405f205f915090505481565b5f3390505f5f83815481106104dd576104dc611d24565b5b905f5260205f209060090201604051806101200160405290815f82015f9054906101000a900473ffffffffffffffffffffffffffffffffffffffff1673ffffffffffffffffffffffffffffffffffffffff1673ffffffffffffffffffffffffffffffffffffffff16815260200160018201805461055990611cf4565b80601f016020809104026020016040519081016040528092919081815260200182805461058590611cf4565b80156105d05780601f106105a7576101008083540402835291602001916105d0565b820191905f5260205f20905b8154815290600101906020018083116105b357829003601f168201915b505050505081526020016002820180546105e990611cf4565b80601f016020809104026020016040519081016040528092919081815260200182805461061590611cf4565b80156106605780601f1061063757610100808354040283529160200191610660565b820191905f5260205f20905b81548152906001019060200180831161064357829003601f168201915b50505050508152602001600382015481526020016004820154815260200160058201548152602001600682015f9054906101000a900460ff1615151515815260200160078201548152602001600882015f9054906101000a900473ffffffffffffffffffffffffffffffffffffffff1673ffffffffffffffffffffffffffffffffffffffff1673ffffffffffffffffffffffffffffffffffffffff168152505090508173ffffffffffffffffffffffffffffffffffffffff1681610100015173ffffffffffffffffffffffffffffffffffffffff161461076c576040517f4ca8886700000000000000000000000000000000000000000000000000000000815260040160405180910390fd5b5f815f015173ffffffffffffffffffffffffffffffffffffffff16319050815f015173ffffffffffffffffffffffffffffffffffffffff16633ccfd60b6040518163ffffffff1660e01b81526004015f604051808303815f87803b1580156107d2575f5ffd5b505af11580156107e4573d5f5f3e3d5ffd5b50505050815f015173ffffffffffffffffffffffffffffffffffffffff167fa92ff919b850e4909ab2261d907ef955f11bc1716733a6cbece38d163a69af8a8483604051610833929190611d51565b60405180910390a250505050565b5f3390505f5f838154811061085957610858611d24565b5b905f5260205f20906009020190508173ffffffffffffffffffffffffffffffffffffffff16816008015f9054906101000a900473ffffffffffffffffffffffffffffffffffffffff1673ffffffffffffffffffffffffffffffffffffffff16146108ef576040517f4ca8886700000000000000000000000000000000000000000000000000000000815260040160405180910390fd5b805f015f9054906101000a900473ffffffffffffffffffffffffffffffffffffffff1673ffffffffffffffffffffffffffffffffffffffff1663980e78446040518163ffffffff1660e01b81526004015f604051808303815f87803b158015610956575f5ffd5b505af1158015610968573d5f5f3e3d5ffd5b505050506001816006015f6101000a81548160ff021916908315150217905550805f015f9054906101000a900473ffffffffffffffffffffffffffffffffffffffff1673ffffffffffffffffffffffffffffffffffffffff167f3be3cf8b79824600b33b84642199163dc824bc8afdc691d0bcd8a849e39f92fc60405160405180910390a2505050565b5f5f80549050905090565b60605f805480602002602001604051908101604052809291908181526020015f905b82821015610c5b578382905f5260205f209060090201604051806101200160405290815f82015f9054906101000a900473ffffffffffffffffffffffffffffffffffffffff1673ffffffffffffffffffffffffffffffffffffffff1673ffffffffffffffffffffffffffffffffffffffff168152602001600182018054610aa590611cf4565b80601f0160208091040260200160405190810160405280929190818152602001828054610ad190611cf4565b8015610b1c5780601f10610af357610100808354040283529160200191610b1c565b820191905f5260205f20905b815481529060010190602001808311610aff57829003601f168201915b50505050508152602001600282018054610b3590611cf4565b80601f0160208091040260200160405190810160405280929190818152602001828054610b6190611cf4565b8015610bac5780601f10610b8357610100808354040283529160200191610bac565b820191905f5260205f20905b815481529060010190602001808311610b8f57829003601f168201915b50505050508152602001600382015481526020016004820154815260200160058201548152602001600682015f9054906101000a900460ff1615151515815260200160078201548152602001600882015f9054906101000a900473ffffffffffffffffffffffffffffffffffffffff1673ffffffffffffffffffffffffffffffffffffffff1673ffffffffffffffffffffffffffffffffffffffff168152505081526020019060010190610a1f565b50505050905090565b5f8173ffffffffffffffffffffffffffffffffffffffff166322f3e2d46040518163ffffffff1660e01b8152600401602060405180830381865afa158015610cae573d5f5f3e3d5ffd5b505050506040513d601f19601f82011682018060405250810190610cd29190611da2565b9050919050565b5f5f3390505f878787878786604051610cf19061152f565b610d0096959493929190611dcd565b604051809103905ff080158015610d19573d5f5f3e3d5ffd5b5090505f6040518061012001604052808373ffffffffffffffffffffffffffffffffffffffff1681526020018a81526020018981526020018881526020018781526020018681526020015f151581526020015f81526020018473ffffffffffffffffffffffffffffffffffffffff1681525090505f5f8054905090505f82908060018154018082558091505060019003905f5260205f2090600902015f909190919091505f820151815f015f6101000a81548173ffffffffffffffffffffffffffffffffffffffff021916908373ffffffffffffffffffffffffffffffffffffffff1602179055506020820151816001019081610e169190611fda565b506040820151816002019081610e2c9190611fda565b50606082015181600301556080820151816004015560a0820151816005015560c0820151816006015f6101000a81548160ff02191690831515021790555060e08201518160070155610100820151816008015f6101000a81548173ffffffffffffffffffffffffffffffffffffffff021916908373ffffffffffffffffffffffffffffffffffffffff160217905550505060015f8573ffffffffffffffffffffffffffffffffffffffff1673ffffffffffffffffffffffffffffffffffffffff1681526020019081526020015f2081908060018154018082558091505060019003905f5260205f20015f90919091909150558060025f8573ffffffffffffffffffffffffffffffffffffffff1673ffffffffffffffffffffffffffffffffffffffff1681526020019081526020015f20819055508373ffffffffffffffffffffffffffffffffffffffff168373ffffffffffffffffffffffffffffffffffffffff167f6056366dba45431fd6a8854ad9f2594942b02c4f2c3f6fbc329b3079b027b8b460405160405180910390a38294505050505095945050505050565b5f3490505f5f8381548110610fe257610fe1611d24565b5b905f5260205f2090600902019050805f015f9054906101000a900473ffffffffffffffffffffffffffffffffffffffff1673ffffffffffffffffffffffffffffffffffffffff166373e888fd83336040518363ffffffff1660e01b815260040161104c9190611c70565b5f604051808303818588803b158015611063575f5ffd5b505af1158015611075573d5f5f3e3d5ffd5b505050505081816007015f82825461108d91906120d6565b925050819055503373ffffffffffffffffffffffffffffffffffffffff16815f015f9054906101000a900473ffffffffffffffffffffffffffffffffffffffff1673ffffffffffffffffffffffffffffffffffffffff167fef854c845b6942bd35c71832198081ff8567d6adc6cf8eb1ecf7e1bb697db80c8460405161111391906117e4565b60405180910390a3505050565b60605f60015f8473ffffffffffffffffffffffffffffffffffffffff1673ffffffffffffffffffffffffffffffffffffffff1681526020019081526020015f208054806020026020016040519081016040528092919081815260200182805480156111a857602002820191905f5260205f20905b815481526020019060010190808311611194575b505050505090505f815167ffffffffffffffff8111156111cb576111ca611a9d565b5b60405190808252806020026020018201604052801561120457816020015b6111f161153c565b8152602001906001900390816111e95790505b5090505f5f90505b8251811015611490575f83828151811061122957611228611d24565b5b60200260200101518154811061124257611241611d24565b5b905f5260205f209060090201604051806101200160405290815f82015f9054906101000a900473ffffffffffffffffffffffffffffffffffffffff1673ffffffffffffffffffffffffffffffffffffffff1673ffffffffffffffffffffffffffffffffffffffff1681526020016001820180546112be90611cf4565b80601f01602080910402602001604051908101604052809291908181526020018280546112ea90611cf4565b80156113355780601f1061130c57610100808354040283529160200191611335565b820191905f5260205f20905b81548152906001019060200180831161131857829003601f168201915b5050505050815260200160028201805461134e90611cf4565b80601f016020809104026020016040519081016040528092919081815260200182805461137a90611cf4565b80156113c55780601f1061139c576101008083540402835291602001916113c5565b820191905f5260205f20905b8154815290600101906020018083116113a857829003601f168201915b50505050508152602001600382015481526020016004820154815260200160058201548152602001600682015f9054906101000a900460ff1615151515815260200160078201548152602001600882015f9054906101000a900473ffffffffffffffffffffffffffffffffffffffff1673ffffffffffffffffffffffffffffffffffffffff1673ffffffffffffffffffffffffffffffffffffffff168152505082828151811061147857611477611d24565b5b6020026020010181905250808060010191505061120c565b508092505050919050565b6001602052815f5260405f2081815481106114b4575f80fd5b905f5260205f20015f91509150505481565b8073ffffffffffffffffffffffffffffffffffffffff1663fa89401a336040518263ffffffff1660e01b81526004016114ff9190611c70565b5f604051808303815f87803b158015611516575f5ffd5b505af1158015611528573d5f5f3e3d5ffd5b5050505050565b611f3d8061210a83390190565b6040518061012001604052805f73ffffffffffffffffffffffffffffffffffffffff16815260200160608152602001606081526020015f81526020015f81526020015f81526020015f151581526020015f81526020015f73ffffffffffffffffffffffffffffffffffffffff1681525090565b5f604051905090565b5f5ffd5b5f5ffd5b5f819050919050565b6115d2816115c0565b81146115dc575f5ffd5b50565b5f813590506115ed816115c9565b92915050565b5f60208284031215611608576116076115b8565b5b5f611615848285016115df565b91505092915050565b5f73ffffffffffffffffffffffffffffffffffffffff82169050919050565b5f6116478261161e565b9050919050565b6116578161163d565b82525050565b5f81519050919050565b5f82825260208201905092915050565b8281835e5f83830152505050565b5f601f19601f8301169050919050565b5f61169f8261165d565b6116a98185611667565b93506116b9818560208601611677565b6116c281611685565b840191505092915050565b6116d6816115c0565b82525050565b5f8115159050919050565b6116f0816116dc565b82525050565b5f6101208201905061170a5f83018c61164e565b818103602083015261171c818b611695565b90508181036040830152611730818a611695565b905061173f60608301896116cd565b61174c60808301886116cd565b61175960a08301876116cd565b61176660c08301866116e7565b61177360e08301856116cd565b61178161010083018461164e565b9a9950505050505050505050565b6117988161163d565b81146117a2575f5ffd5b50565b5f813590506117b38161178f565b92915050565b5f602082840312156117ce576117cd6115b8565b5b5f6117db848285016117a5565b91505092915050565b5f6020820190506117f75f8301846116cd565b92915050565b5f81519050919050565b5f82825260208201905092915050565b5f819050602082019050919050565b61182f8161163d565b82525050565b5f82825260208201905092915050565b5f61184f8261165d565b6118598185611835565b9350611869818560208601611677565b61187281611685565b840191505092915050565b611886816115c0565b82525050565b611895816116dc565b82525050565b5f61012083015f8301516118b15f860182611826565b50602083015184820360208601526118c98282611845565b915050604083015184820360408601526118e38282611845565b91505060608301516118f8606086018261187d565b50608083015161190b608086018261187d565b5060a083015161191e60a086018261187d565b5060c083015161193160c086018261188c565b5060e083015161194460e086018261187d565b50610100830151611959610100860182611826565b508091505092915050565b5f61196f838361189b565b905092915050565b5f602082019050919050565b5f61198d826117fd565b6119978185611807565b9350836020820285016119a985611817565b805f5b858110156119e457848403895281516119c58582611964565b94506119d083611977565b925060208a019950506001810190506119ac565b50829750879550505050505092915050565b5f6020820190508181035f830152611a0e8184611983565b905092915050565b5f611a208261163d565b9050919050565b611a3081611a16565b8114611a3a575f5ffd5b50565b5f81359050611a4b81611a27565b92915050565b5f60208284031215611a6657611a656115b8565b5b5f611a7384828501611a3d565b91505092915050565b5f602082019050611a8f5f8301846116e7565b92915050565b5f5ffd5b5f5ffd5b7f4e487b71000000000000000000000000000000000000000000000000000000005f52604160045260245ffd5b611ad382611685565b810181811067ffffffffffffffff82111715611af257611af1611a9d565b5b80604052505050565b5f611b046115af565b9050611b108282611aca565b919050565b5f67ffffffffffffffff821115611b2f57611b2e611a9d565b5b611b3882611685565b9050602081019050919050565b828183375f83830152505050565b5f611b65611b6084611b15565b611afb565b905082815260208101848484011115611b8157611b80611a99565b5b611b8c848285611b45565b509392505050565b5f82601f830112611ba857611ba7611a95565b5b8135611bb8848260208601611b53565b91505092915050565b5f5f5f5f5f60a08688031215611bda57611bd96115b8565b5b5f86013567ffffffffffffffff811115611bf757611bf66115bc565b5b611c0388828901611b94565b955050602086013567ffffffffffffffff811115611c2457611c236115bc565b5b611c3088828901611b94565b9450506040611c41888289016115df565b9350506060611c52888289016115df565b9250506080611c63888289016115df565b9150509295509295909350565b5f602082019050611c835f83018461164e565b92915050565b5f5f60408385031215611c9f57611c9e6115b8565b5b5f611cac858286016117a5565b9250506020611cbd858286016115df565b9150509250929050565b7f4e487b71000000000000000000000000000000000000000000000000000000005f52602260045260245ffd5b5f6002820490506001821680611d0b57607f821691505b602082108103611d1e57611d1d611cc7565b5b50919050565b7f4e487b71000000000000000000000000000000000000000000000000000000005f52603260045260245ffd5b5f604082019050611d645f83018561164e565b611d7160208301846116cd565b9392505050565b611d81816116dc565b8114611d8b575f5ffd5b50565b5f81519050611d9c81611d78565b92915050565b5f60208284031215611db757611db66115b8565b5b5f611dc484828501611d8e565b91505092915050565b5f60c0820190508181035f830152611de58189611695565b90508181036020830152611df98188611695565b9050611e0860408301876116cd565b611e1560608301866116cd565b611e2260808301856116cd565b611e2f60a083018461164e565b979650505050505050565b5f819050815f5260205f209050919050565b5f6020601f8301049050919050565b5f82821b905092915050565b5f60088302611e967fffffffffffffffffffffffffffffffffffffffffffffffffffffffffffffffff82611e5b565b611ea08683611e5b565b95508019841693508086168417925050509392505050565b5f819050919050565b5f611edb611ed6611ed1846115c0565b611eb8565b6115c0565b9050919050565b5f819050919050565b611ef483611ec1565b611f08611f0082611ee2565b848454611e67565b825550505050565b5f5f905090565b611f1f611f10565b611f2a818484611eeb565b505050565b5b81811015611f4d57611f425f82611f17565b600181019050611f30565b5050565b601f821115611f9257611f6381611e3a565b611f6c84611e4c565b81016020851015611f7b578190505b611f8f611f8785611e4c565b830182611f2f565b50505b505050565b5f82821c905092915050565b5f611fb25f1984600802611f97565b1980831691505092915050565b5f611fca8383611fa3565b9150826002028217905092915050565b611fe38261165d565b67ffffffffffffffff811115611ffc57611ffb611a9d565b5b6120068254611cf4565b612011828285611f51565b5f60209050601f831160018114612042575f8415612030578287015190505b61203a8582611fbf565b8655506120a1565b601f19841661205086611e3a565b5f5b8281101561207757848901518255600182019150602085019450602081019050612052565b868310156120945784890151612090601f891682611fa3565b8355505b6001600288020188555050505b505050505050565b7f4e487b71000000000000000000000000000000000000000000000000000000005f52601160045260245ffd5b5f6120e0826115c0565b91506120eb836115c0565b9250828201905080821115612103576121026120a9565b5b9291505056fe608060405234801561000f575f5ffd5b50604051611f3d380380611f3d8339818101604052810190610031919061042d565b335f73ffffffffffffffffffffffffffffffffffffffff168173ffffffffffffffffffffffffffffffffffffffff16036100a2575f6040517f1e4fbdf700000000000000000000000000000000000000000000000000000000815260040161009991906104fd565b60405180910390fd5b6100b18161019260201b60201c565b5085600190816100c1919061071d565b5084600290816100d1919061071d565b508360038190555082600481905550816005819055503360085f6101000a81548173ffffffffffffffffffffffffffffffffffffffff021916908373ffffffffffffffffffffffffffffffffffffffff1602179055505f60065f6101000a81548160ff0219169083151502179055505f6007819055508060085f6101000a81548173ffffffffffffffffffffffffffffffffffffffff021916908373ffffffffffffffffffffffffffffffffffffffff1602179055505050505050506107ec565b5f5f5f9054906101000a900473ffffffffffffffffffffffffffffffffffffffff169050815f5f6101000a81548173ffffffffffffffffffffffffffffffffffffffff021916908373ffffffffffffffffffffffffffffffffffffffff1602179055508173ffffffffffffffffffffffffffffffffffffffff168173ffffffffffffffffffffffffffffffffffffffff167f8be0079c531659141344cd1fd0a4f28419497f9722a3daafe3b4186f6b6457e060405160405180910390a35050565b5f604051905090565b5f5ffd5b5f5ffd5b5f5ffd5b5f5ffd5b5f601f19601f8301169050919050565b7f4e487b71000000000000000000000000000000000000000000000000000000005f52604160045260245ffd5b6102b28261026c565b810181811067ffffffffffffffff821117156102d1576102d061027c565b5b80604052505050565b5f6102e3610253565b90506102ef82826102a9565b919050565b5f67ffffffffffffffff82111561030e5761030d61027c565b5b6103178261026c565b9050602081019050919050565b8281835e5f83830152505050565b5f61034461033f846102f4565b6102da565b9050828152602081018484840111156103605761035f610268565b5b61036b848285610324565b509392505050565b5f82601f83011261038757610386610264565b5b8151610397848260208601610332565b91505092915050565b5f819050919050565b6103b2816103a0565b81146103bc575f5ffd5b50565b5f815190506103cd816103a9565b92915050565b5f73ffffffffffffffffffffffffffffffffffffffff82169050919050565b5f6103fc826103d3565b9050919050565b61040c816103f2565b8114610416575f5ffd5b50565b5f8151905061042781610403565b92915050565b5f5f5f5f5f5f60c087890312156104475761044661025c565b5b5f87015167ffffffffffffffff81111561046457610463610260565b5b61047089828a01610373565b965050602087015167ffffffffffffffff81111561049157610490610260565b5b61049d89828a01610373565b95505060406104ae89828a016103bf565b94505060606104bf89828a016103bf565b93505060806104d089828a016103bf565b92505060a06104e189828a01610419565b9150509295509295509295565b6104f7816103f2565b82525050565b5f6020820190506105105f8301846104ee565b92915050565b5f81519050919050565b7f4e487b71000000000000000000000000000000000000000000000000000000005f52602260045260245ffd5b5f600282049050600182168061056457607f821691505b60208210810361057757610576610520565b5b50919050565b5f819050815f5260205f209050919050565b5f6020601f8301049050919050565b5f82821b905092915050565b5f600883026105d97fffffffffffffffffffffffffffffffffffffffffffffffffffffffffffffffff8261059e565b6105e3868361059e565b95508019841693508086168417925050509392505050565b5f819050919050565b5f61061e610619610614846103a0565b6105fb565b6103a0565b9050919050565b5f819050919050565b61063783610604565b61064b61064382610625565b8484546105aa565b825550505050565b5f5f905090565b610662610653565b61066d81848461062e565b505050565b5b81811015610690576106855f8261065a565b600181019050610673565b5050565b601f8211156106d5576106a68161057d565b6106af8461058f565b810160208510156106be578190505b6106d26106ca8561058f565b830182610672565b50505b505050565b5f82821c905092915050565b5f6106f55f19846008026106da565b1980831691505092915050565b5f61070d83836106e6565b9150826002028217905092915050565b61072682610516565b67ffffffffffffffff81111561073f5761073e61027c565b5b610749825461054d565b610754828285610694565b5f60209050601f831160018114610785575f8415610773578287015190505b61077d8582610702565b8655506107e4565b601f1984166107938661057d565b5f5b828110156107ba57848901518255600182019150602085019450602081019050610795565b868310156107d757848901516107d3601f8916826106e6565b8355505b6001600288020188555050505b505050505050565b611744806107f95f395ff3fe60806040526004361061011e575f3560e01c8063715018a61161009f578063995c5e9d11610063578063995c5e9d14610384578063c24a0f8b146103c0578063cb282253146103ea578063f2fde38b14610414578063fa89401a1461043c5761011e565b8063715018a6146102e85780637284e416146102fe57806373e888fd146103285780638da5cb5b14610344578063980e78441461036e5761011e565b80633cb5d100116100e65780633cb5d100146102065780633ccfd60b14610242578063401938831461025857806342e94c90146102825780634a79d50c146102be5761011e565b806302d05d3f146101225780630b97bc861461014c5780630ed5a9331461017657806321eff7fc146101a057806322f3e2d4146101dc575b5f5ffd5b34801561012d575f5ffd5b50610136610464565b6040516101439190611399565b60405180910390f35b348015610157575f5ffd5b50610160610489565b60405161016d91906113ca565b60405180910390f35b348015610181575f5ffd5b5061018a61048f565b60405161019791906113fd565b60405180910390f35b3480156101ab575f5ffd5b506101c660048036038101906101c19190611444565b6104a1565b6040516101d391906113ca565b60405180910390f35b3480156101e7575f5ffd5b506101f06104e7565b6040516101fd91906113fd565b60405180910390f35b348015610211575f5ffd5b5061022c60048036038101906102279190611499565b61050a565b6040516102399190611399565b60405180910390f35b34801561024d575f5ffd5b50610256610545565b005b348015610263575f5ffd5b5061026c61074f565b60405161027991906113ca565b60405180910390f35b34801561028d575f5ffd5b506102a860048036038101906102a39190611444565b610755565b6040516102b591906113ca565b60405180910390f35b3480156102c9575f5ffd5b506102d261076a565b6040516102df9190611534565b60405180910390f35b3480156102f3575f5ffd5b506102fc6107f6565b005b348015610309575f5ffd5b50610312610809565b60405161031f9190611534565b60405180910390f35b610342600480360381019061033d9190611444565b610895565b005b34801561034f575f5ffd5b50610358610bde565b6040516103659190611399565b60405180910390f35b348015610379575f5ffd5b50610382610c05565b005b34801561038f575f5ffd5b506103aa60048036038101906103a59190611444565b610dbf565b6040516103b791906113fd565b60405180910390f35b3480156103cb575f5ffd5b506103d4610ddc565b6040516103e191906113ca565b60405180910390f35b3480156103f5575f5ffd5b506103fe610de2565b60405161040b91906113ca565b60405180910390f35b34801561041f575f5ffd5b5061043a60048036038101906104359190611444565b610de8565b005b348015610447575f5ffd5b50610462600480360381019061045d9190611444565b610e6c565b005b60085f9054906101000a900473ffffffffffffffffffffffffffffffffffffffff1681565b60035481565b60065f9054906101000a900460ff1681565b5f60095f8373ffffffffffffffffffffffffffffffffffffffff1673ffffffffffffffffffffffffffffffffffffffff1681526020019081526020015f20549050919050565b5f60045442118015610505575060065f9054906101000a900460ff16155b905090565b600b8181548110610519575f80fd5b905f5260205f20015f915054906101000a900473ffffffffffffffffffffffffffffffffffffffff1681565b60065f9054906101000a900460ff161561058b576040517f7ad5c20d00000000000000000000000000000000000000000000000000000000815260040160405180910390fd5b6004544210156105c7576040517fcc76115300000000000000000000000000000000000000000000000000000000815260040160405180910390fd5b6005546007541015610605576040517f6ca90bde00000000000000000000000000000000000000000000000000000000815260040160405180910390fd5b61060d611098565b5f3073ffffffffffffffffffffffffffffffffffffffff163190505f60085f9054906101000a900473ffffffffffffffffffffffffffffffffffffffff1673ffffffffffffffffffffffffffffffffffffffff168260405161066e90611581565b5f6040518083038185875af1925050503d805f81146106a8576040519150601f19603f3d011682016040523d82523d5f602084013e6106ad565b606091505b50509050806106f1576040517f08c379a00000000000000000000000000000000000000000000000000000000081526004016106e8906115df565b60405180910390fd5b7feaff4b37086828766ad3268786972c0cd24259d4c87a80f9d3963a3c3d999b0d60085f9054906101000a900473ffffffffffffffffffffffffffffffffffffffff16836040516107439291906115fd565b60405180910390a15050565b60055481565b6009602052805f5260405f205f915090505481565b6001805461077790611651565b80601f01602080910402602001604051908101604052809291908181526020018280546107a390611651565b80156107ee5780601f106107c5576101008083540402835291602001916107ee565b820191905f5260205f20905b8154815290600101906020018083116107d157829003601f168201915b505050505081565b6107fe611098565b6108075f61111f565b565b6002805461081690611651565b80601f016020809104026020016040519081016040528092919081815260200182805461084290611651565b801561088d5780601f106108645761010080835404028352916020019161088d565b820191905f5260205f20905b81548152906001019060200180831161087057829003601f168201915b505050505081565b6003544210156108d1576040517f33f44d6100000000000000000000000000000000000000000000000000000000815260040160405180910390fd5b600454421061090c576040517f553ae05400000000000000000000000000000000000000000000000000000000815260040160405180910390fd5b60065f9054906101000a900460ff1615610952576040517f7ad5c20d00000000000000000000000000000000000000000000000000000000815260040160405180910390fd5b6005546007541061098f576040517f653fd1bd00000000000000000000000000000000000000000000000000000000815260040160405180910390fd5b610997611098565b5f3490505f81116109d4576040517f820bf1e500000000000000000000000000000000000000000000000000000000815260040160405180910390fd5b600554816007546109e591906116ae565b1115610a1d576040517fbde2671400000000000000000000000000000000000000000000000000000000815260040160405180910390fd5b600a5f8373ffffffffffffffffffffffffffffffffffffffff1673ffffffffffffffffffffffffffffffffffffffff1681526020019081526020015f205f9054906101000a900460ff16610b21576001600a5f8473ffffffffffffffffffffffffffffffffffffffff1673ffffffffffffffffffffffffffffffffffffffff1681526020019081526020015f205f6101000a81548160ff021916908315150217905550600b82908060018154018082558091505060019003905f5260205f20015f9091909190916101000a81548173ffffffffffffffffffffffffffffffffffffffff021916908373ffffffffffffffffffffffffffffffffffffffff1602179055505b8060095f8473ffffffffffffffffffffffffffffffffffffffff1673ffffffffffffffffffffffffffffffffffffffff1681526020019081526020015f205f828254610b6d91906116ae565b925050819055508060075f828254610b8591906116ae565b925050819055508173ffffffffffffffffffffffffffffffffffffffff167f6770260ea820d2f539364e7617e021543aaf6d192f2fd2a47c20db6bd99a4eb982604051610bd291906113ca565b60405180910390a25050565b5f5f5f9054906101000a900473ffffffffffffffffffffffffffffffffffffffff16905090565b60065f9054906101000a900460ff1615610c4b576040517f7ad5c20d00000000000000000000000000000000000000000000000000000000815260040160405180910390fd5b60055460075410610c88576040517f653fd1bd00000000000000000000000000000000000000000000000000000000815260040160405180910390fd5b6004544210610cc3576040517f553ae05400000000000000000000000000000000000000000000000000000000815260040160405180910390fd5b610ccb611098565b5f5f90505b600b80549050811015610d76575f600b8281548110610cf257610cf16116e1565b5b905f5260205f20015f9054906101000a900473ffffffffffffffffffffffffffffffffffffffff1690505f60095f8373ffffffffffffffffffffffffffffffffffffffff1673ffffffffffffffffffffffffffffffffffffffff1681526020019081526020015f20549050610d6782826111e0565b50508080600101915050610cd0565b50600160065f6101000a81548160ff0219169083151502179055507fb83ebe09f40e9293bdea1d6567fae3175119d3d0ff13c4b4df15994837dd7f5160405160405180910390a1565b600a602052805f5260405f205f915054906101000a900460ff1681565b60045481565b60075481565b610df0611098565b5f73ffffffffffffffffffffffffffffffffffffffff168173ffffffffffffffffffffffffffffffffffffffff1603610e60575f6040517f1e4fbdf7000000000000000000000000000000000000000000000000000000008152600401610e579190611399565b60405180910390fd5b610e698161111f565b50565b600454421015610ea8576040517fcc76115300000000000000000000000000000000000000000000000000000000815260040160405180910390fd5b60055460075410610ee5576040517f653fd1bd00000000000000000000000000000000000000000000000000000000815260040160405180910390fd5b610eed611098565b5f60095f8373ffffffffffffffffffffffffffffffffffffffff1673ffffffffffffffffffffffffffffffffffffffff1681526020019081526020015f2054905060085f9054906101000a900473ffffffffffffffffffffffffffffffffffffffff1673ffffffffffffffffffffffffffffffffffffffff168273ffffffffffffffffffffffffffffffffffffffff160361102e575f5f90505b600b80549050811015611028575f600b8281548110610fa957610fa86116e1565b5b905f5260205f20015f9054906101000a900473ffffffffffffffffffffffffffffffffffffffff16905061101a8160095f8473ffffffffffffffffffffffffffffffffffffffff1673ffffffffffffffffffffffffffffffffffffffff1681526020019081526020015f20546111e0565b508080600101915050610f87565b50611094565b600a5f8373ffffffffffffffffffffffffffffffffffffffff1673ffffffffffffffffffffffffffffffffffffffff1681526020019081526020015f205f9054906101000a900460ff16801561108357505f81115b156110935761109282826111e0565b5b5b5050565b6110a0611353565b73ffffffffffffffffffffffffffffffffffffffff166110be610bde565b73ffffffffffffffffffffffffffffffffffffffff161461111d576110e1611353565b6040517f118cdaa70000000000000000000000000000000000000000000000000000000081526004016111149190611399565b60405180910390fd5b565b5f5f5f9054906101000a900473ffffffffffffffffffffffffffffffffffffffff169050815f5f6101000a81548173ffffffffffffffffffffffffffffffffffffffff021916908373ffffffffffffffffffffffffffffffffffffffff1602179055508173ffffffffffffffffffffffffffffffffffffffff168173ffffffffffffffffffffffffffffffffffffffff167f8be0079c531659141344cd1fd0a4f28419497f9722a3daafe3b4186f6b6457e060405160405180910390a35050565b5f60095f8473ffffffffffffffffffffffffffffffffffffffff1673ffffffffffffffffffffffffffffffffffffffff1681526020019081526020015f205490505f81111561134e575f60095f8573ffffffffffffffffffffffffffffffffffffffff1673ffffffffffffffffffffffffffffffffffffffff1681526020019081526020015f20819055505f8373ffffffffffffffffffffffffffffffffffffffff168260405161129090611581565b5f6040518083038185875af1925050503d805f81146112ca576040519150601f19603f3d011682016040523d82523d5f602084013e6112cf565b606091505b5050905080611313576040517f08c379a000000000000000000000000000000000000000000000000000000000815260040161130a906115df565b60405180910390fd5b7fbb28353e4598c3b9199101a66e0989549b659a59a54d2c27fbb183f1932c8e6d84846040516113449291906115fd565b60405180910390a1505b505050565b5f33905090565b5f73ffffffffffffffffffffffffffffffffffffffff82169050919050565b5f6113838261135a565b9050919050565b61139381611379565b82525050565b5f6020820190506113ac5f83018461138a565b92915050565b5f819050919050565b6113c4816113b2565b82525050565b5f6020820190506113dd5f8301846113bb565b92915050565b5f8115159050919050565b6113f7816113e3565b82525050565b5f6020820190506114105f8301846113ee565b92915050565b5f5ffd5b61142381611379565b811461142d575f5ffd5b50565b5f8135905061143e8161141a565b92915050565b5f6020828403121561145957611458611416565b5b5f61146684828501611430565b91505092915050565b611478816113b2565b8114611482575f5ffd5b50565b5f813590506114938161146f565b92915050565b5f602082840312156114ae576114ad611416565b5b5f6114bb84828501611485565b91505092915050565b5f81519050919050565b5f82825260208201905092915050565b8281835e5f83830152505050565b5f601f19601f8301169050919050565b5f611506826114c4565b61151081856114ce565b93506115208185602086016114de565b611529816114ec565b840191505092915050565b5f6020820190508181035f83015261154c81846114fc565b905092915050565b5f81905092915050565b50565b5f61156c5f83611554565b91506115778261155e565b5f82019050919050565b5f61158b82611561565b9150819050919050565b7f5472616e73666572206661696c656400000000000000000000000000000000005f82015250565b5f6115c9600f836114ce565b91506115d482611595565b602082019050919050565b5f6020820190508181035f8301526115f6816115bd565b9050919050565b5f6040820190506116105f83018561138a565b61161d60208301846113bb565b9392505050565b7f4e487b71000000000000000000000000000000000000000000000000000000005f52602260045260245ffd5b5f600282049050600182168061166857607f821691505b60208210810361167b5761167a611624565b5b50919050565b7f4e487b71000000000000000000000000000000000000000000000000000000005f52601160045260245ffd5b5f6116b8826113b2565b91506116c3836113b2565b92508282019050808211156116db576116da611681565b5b92915050565b7f4e487b71000000000000000000000000000000000000000000000000000000005f52603260045260245ffdfea26469706673582212202b2bedd6b256489748a7a5e8247f2dfdb7c5515cf6b2591ed14f1cc2f06443ed64736f6c634300081e0033a26469706673582212205334d200cbf9049a9c96c947c873550bb9d99ed87930caad0409739d561b465564736f6c634300081e0033","linkReferences":{}},"methodIdentifiers":{"campaignAddressToId(address)":"1b0e2edc","campaigns(uint256)":"141961bc","cancelCampaign(uint256)":"45598b4a","contribute(uint256)":"c1cbbca7","createCampaign(string,string,uint256,uint256,uint256)":"b5c89219","creatorCampaigns(address,uint256)":"ddc8af61","getAllCampaigns()":"86cdf604","getCampaignsByCreator(address)":"d5b8d84a","getCampaignsCount()":"7e6253da","isActive(address)":"9f8a13d7","refund(address)":"fa89401a","withdraw(uint256)":"2e1a7d4d"},"id":28}