{"abi":[{"type":"function","name":"campaignAddressToId","inputs":[{"name":"","type":"address","internalType":"address"}],"outputs":[{"name":"","type":"uint256","internalType":"uint256"}],"stateMutability":"view"},{"type":"function","name":"campaigns","inputs":[{"name":"","type":"uint256","internalType":"uint256"}],"outputs":[{"name":"campaignAddress","type":"address","internalType":"address"},{"name":"title","type":"string","internalType":"string"},{"name":"description","type":"string","internalType":"string"},{"name":"startDate","type":"uint256","internalType":"uint256"},{"name":"endDate","type":"uint256","internalType":"uint256"},{"name":"goal","type":"uint256","internalType":"uint256"},{"name":"isCanceled","type":"bool","internalType":"bool"},{"name":"totalEthContributed","type":"uint256","internalType":"uint256"},{"name":"creator","type":"address","internalType":"address"}],"stateMutability":"view"},{"type":"function","name":"cancelCampaign","inputs":[{"name":"_id","type":"uint256","internalType":"uint256"}],"outputs":[],"stateMutability":"nonpayable"},{"type":"function","name":"contribute","inputs":[{"name":"_id","type":"uint256","internalType":"uint256"}],"outputs":[],"stateMutability":"payable"},{"type":"function","name":"createCampaign","inputs":[{"name":"_title","type":"string","internalType":"string"},{"name":"_description","type":"string","internalType":"string"},{"name":"_startDate","type":"uint256","internalType":"uint256"},{"name":"_endDate","type":"uint256","internalType":"uint256"},{"name":"_goal","type":"uint256","internalType":"uint256"}],"outputs":[{"name":"","type":"address","internalType":"address"}],"stateMutability":"nonpayable"},{"type":"function","name":"creatorCampaigns","inputs":[{"name":"","type":"address","internalType":"address"},{"name":"","type":"uint256","internalType":"uint256"}],"outputs":[{"name":"","type":"uint256","internalType":"uint256"}],"stateMutability":"view"},{"type":"function","name":"getAllCampaigns","inputs":[],"outputs":[{"name":"","type":"tuple[]","internalType":"struct CampaignPreview[]","components":[{"name":"campaignAddress","type":"address","internalType":"address"},{"name":"title","type":"string","internalType":"string"},{"name":"description","type":"string","internalType":"string"},{"name":"startDate","type":"uint256","internalType":"uint256"},{"name":"endDate","type":"uint256","internalType":"uint256"},{"name":"goal","type":"uint256","internalType":"uint256"},{"name":"isCanceled","type":"bool","internalType":"bool"},{"name":"totalEthContributed","type":"uint256","internalType":"uint256"},{"name":"creator","type":"address","internalType":"address"}]}],"stateMutability":"view"},{"type":"function","name":"getCampaignsByCreator","inputs":[{"name":"_creator","type":"address","internalType":"address"}],"outputs":[{"name":"","type":"tuple[]","internalType":"struct CampaignPreview[]","components":[{"name":"campaignAddress","type":"address","internalType":"address"},{"name":"title","type":"string","internalType":"string"},{"name":"description","type":"string","internalType":"string"},{"name":"startDate","type":"uint256","internalType":"uint256"},{"name":"endDate","type":"uint256","internalType":"uint256"},{"name":"goal","type":"uint256","internalType":"uint256"},{"name":"isCanceled","type":"bool","internalType":"bool"},{"name":"totalEthContributed","type":"uint256","internalType":"uint256"},{"name":"creator","type":"address","internalType":"address"}]}],"stateMutability":"view"},{"type":"function","name":"getCampaignsCount","inputs":[],"outputs":[{"name":"","type":"uint256","internalType":"uint256"}],"stateMutability":"view"},{"type":"function","name":"isActive","inputs":[{"name":"campaign","type":"address","internalType":"contract Campaign"}],"outputs":[{"name":"","type":"bool","internalType":"bool"}],"stateMutability":"view"},{"type":"function","name":"refund","inputs":[{"name":"_campaign","type":"address","internalType":"contract Campaign"}],"outputs":[],"stateMutability":"nonpayable"},{"type":"function","name":"withdraw","inputs":[{"name":"_id","type":"uint256","internalType":"uint256"}],"outputs":[],"stateMutability":"nonpayable"},{"type":"event","name":"CampaignCanceled","inputs":[{"name":"campaign","type":"address","indexed":true,"internalType":"address"}],"anonymous":false},{"type":"event","name":"CampaignCreated","inputs":[{"name":"campaignAddress","type":"address","indexed":true,"internalType":"address"},{"name":"creator","type":"address","indexed":true,"internalType":"address"}],"anonymous":false},{"type":"event","name":"ContributionMade","inputs":[{"name":"campaign","type":"address","indexed":true,"internalType":"address"},{"name":"contributor","type":"address","indexed":true,"internalType":"address"},{"name":"amount","type":"uint256","indexed":false,"internalType":"uint256"}],"anonymous":false},{"type":"event","name":"FundsWithdrawn","inputs":[{"name":"campaign","type":"address","indexed":true,"internalType":"address"},{"name":"owner","type":"address","indexed":false,"internalType":"address"},{"name":"amount","type":"uint256","indexed":false,"internalType":"uint256"}],"anonymous":false},{"type":"error","name":"AccessDenied","inputs":[]}],"bytecode":{"object":"0x608060405234801561000f575f80fd5b506127848061001d5f395ff3fe608060405260043610620000b3575f3560e01c80639f8a13d7116200006a5780639f8a13d714620001be578063b5c8921914620001f3578063c1cbbca71462000230578063d5b8d84a1462000247578063ddc8af61146200026b578063fa89401a146200028f575f80fd5b8063141961bc14620000b75780631b0e2edc14620000fb5780632e1a7d4d146200013957806345598b4a146200015f5780637e6253da146200018357806386cdf6041462000198575b5f80fd5b348015620000c3575f80fd5b50620000db620000d536600462001109565b620002b3565b604051620000f29998979695949392919062001166565b60405180910390f35b34801562000107575f80fd5b506200012a62000119366004620011f3565b60026020525f908152604090205481565b604051908152602001620000f2565b34801562000145575f80fd5b506200015d6200015736600462001109565b62000440565b005b3480156200016b575f80fd5b506200015d6200017d36600462001109565b620006e8565b3480156200018f575f80fd5b505f546200012a565b348015620001a4575f80fd5b50620001af620007ea565b604051620000f2919062001218565b348015620001ca575f80fd5b50620001e2620001dc366004620011f3565b620009df565b6040519015158152602001620000f2565b348015620001ff575f80fd5b506200021762000211366004620013a4565b62000a49565b6040516001600160a01b039091168152602001620000f2565b6200015d6200024136600462001109565b62000c52565b34801562000253575f80fd5b50620001af62000265366004620011f3565b62000d38565b34801562000277575f80fd5b506200012a6200028936600462001424565b62001076565b3480156200029b575f80fd5b506200015d620002ad366004620011f3565b620010a2565b5f8181548110620002c2575f80fd5b5f918252602090912060099091020180546001820180546001600160a01b03909216935090620002f29062001451565b80601f0160208091040260200160405190810160405280929190818152602001828054620003209062001451565b80156200036f5780601f1062000345576101008083540402835291602001916200036f565b820191905f5260205f20905b8154815290600101906020018083116200035157829003601f168201915b505050505090806002018054620003869062001451565b80601f0160208091040260200160405190810160405280929190818152602001828054620003b49062001451565b8015620004035780601f10620003d95761010080835404028352916020019162000403565b820191905f5260205f20905b815481529060010190602001808311620003e557829003601f168201915b505050600384015460048501546005860154600687015460078801546008909801549697939692955090935060ff1691906001600160a01b031689565b5f3390505f8083815481106200045a576200045a6200148b565b5f91825260209182902060408051610120810190915260099092020180546001600160a01b0316825260018101805492939192918401916200049c9062001451565b80601f0160208091040260200160405190810160405280929190818152602001828054620004ca9062001451565b8015620005195780601f10620004ef5761010080835404028352916020019162000519565b820191905f5260205f20905b815481529060010190602001808311620004fb57829003601f168201915b50505050508152602001600282018054620005349062001451565b80601f0160208091040260200160405190810160405280929190818152602001828054620005629062001451565b8015620005b15780601f106200058757610100808354040283529160200191620005b1565b820191905f5260205f20905b8154815290600101906020018083116200059357829003601f168201915b5050509183525050600382015460208201526004820154604082015260058201546060820152600682015460ff1615156080820152600782015460a08201526008909101546001600160a01b0390811660c0909201919091526101008201519192508381169116146200063757604051634ca8886760e01b815260040160405180910390fd5b5f815f01516001600160a01b0316319050815f01516001600160a01b0316633ccfd60b6040518163ffffffff1660e01b81526004015f604051808303815f87803b15801562000684575f80fd5b505af115801562000697573d5f803e3d5ffd5b50508351604080516001600160a01b038881168252602082018790528251931694507fa92ff919b850e4909ab2261d907ef955f11bc1716733a6cbece38d163a69af8a93508290030190a250505050565b5f3390505f8083815481106200070257620007026200148b565b5f918252602090912060099091020160088101549091506001600160a01b038381169116146200074557604051634ca8886760e01b815260040160405180910390fd5b8054604080516326039e1160e21b815290516001600160a01b039092169163980e7844916004808201925f9290919082900301818387803b15801562000789575f80fd5b505af11580156200079c573d5f803e3d5ffd5b50505060068201805460ff191660011790555080546040516001600160a01b03909116907f3be3cf8b79824600b33b84642199163dc824bc8afdc691d0bcd8a849e39f92fc905f90a2505050565b60605f805480602002602001604051908101604052809291908181526020015f905b82821015620009d6575f8481526020908190206040805161012081019091526009850290910180546001600160a01b031682526001810180549293919291840191620008589062001451565b80601f0160208091040260200160405190810160405280929190818152602001828054620008869062001451565b8015620008d55780601f10620008ab57610100808354040283529160200191620008d5565b820191905f5260205f20905b815481529060010190602001808311620008b757829003601f168201915b50505050508152602001600282018054620008f09062001451565b80601f01602080910402602001604051908101604052809291908181526020018280546200091e9062001451565b80156200096d5780601f1062000943576101008083540402835291602001916200096d565b820191905f5260205f20905b8154815290600101906020018083116200094f57829003601f168201915b505050918352505060038201546020808301919091526004830154604083015260058301546060830152600683015460ff1615156080830152600783015460a08301526008909201546001600160a01b031660c09091015290825260019290920191016200080c565b50505050905090565b5f816001600160a01b03166322f3e2d46040518163ffffffff1660e01b8152600401602060405180830381865afa15801562000a1d573d5f803e3d5ffd5b505050506040513d601f19601f8201168201806040525081019062000a4391906200149f565b92915050565b5f803390505f87878787878660405162000a6390620010fb565b62000a7496959493929190620014c0565b604051809103905ff08015801562000a8e573d5f803e3d5ffd5b5060408051610120810182526001600160a01b038381168252602082018c81529282018b9052606082018a90526080820189905260a082018890525f60c0830181905260e08301819052868216610100840152805460018101825590805282517f290decd9548b62a8d60345a988386fc84ba6bc95484008f6362f93160ef3e5636009830290810180546001600160a01b0319169290941691909117835593519495509193919284927f290decd9548b62a8d60345a988386fc84ba6bc95484008f6362f93160ef3e5649091019062000b68908262001569565b506040820151600282019062000b7f908262001569565b50606082015160038201556080820151600482015560a0820151600582015560c082015160068201805460ff191691151591909117905560e0820151600782015561010090910151600890910180546001600160a01b0319166001600160a01b039283161790558481165f8181526001602081815260408084208054938401815584528184209092018690559387168083526002909452808220859055519192917f6056366dba45431fd6a8854ad9f2594942b02c4f2c3f6fbc329b3079b027b8b49190a3509098975050505050505050565b5f3490505f80838154811062000c6c5762000c6c6200148b565b5f918252602090912060099091020180546040516373e888fd60e01b81523360048201529192506001600160a01b0316906373e888fd9084906024015f604051808303818588803b15801562000cc0575f80fd5b505af115801562000cd3573d5f803e3d5ffd5b505050505081816007015f82825462000ced919062001646565b9091555050805460405183815233916001600160a01b0316907fef854c845b6942bd35c71832198081ff8567d6adc6cf8eb1ecf7e1bb697db80c9060200160405180910390a3505050565b6001600160a01b0381165f90815260016020908152604080832080548251818502810185019093528083526060949383018282801562000d9657602002820191905f5260205f20905b81548152602001906001019080831162000d81575b505050505090505f815167ffffffffffffffff81111562000dbb5762000dbb620012ff565b60405190808252806020026020018201604052801562000e4b57816020015b62000e376040518061012001604052805f6001600160a01b0316815260200160608152602001606081526020015f81526020015f81526020015f81526020015f151581526020015f81526020015f6001600160a01b031681525090565b81526020019060019003908162000dda5790505b5090505f5b82518110156200106e575f83828151811062000e705762000e706200148b565b60200260200101518154811062000e8b5762000e8b6200148b565b5f91825260209182902060408051610120810190915260099092020180546001600160a01b03168252600181018054929391929184019162000ecd9062001451565b80601f016020809104026020016040519081016040528092919081815260200182805462000efb9062001451565b801562000f4a5780601f1062000f205761010080835404028352916020019162000f4a565b820191905f5260205f20905b81548152906001019060200180831162000f2c57829003601f168201915b5050505050815260200160028201805462000f659062001451565b80601f016020809104026020016040519081016040528092919081815260200182805462000f939062001451565b801562000fe25780601f1062000fb85761010080835404028352916020019162000fe2565b820191905f5260205f20905b81548152906001019060200180831162000fc457829003601f168201915b5050509183525050600382015460208201526004820154604082015260058201546060820152600682015460ff1615156080820152600782015460a08201526008909101546001600160a01b031660c09091015282518390839081106200104d576200104d6200148b565b6020026020010181905250808062001065906200165c565b91505062000e50565b509392505050565b6001602052815f5260405f20818154811062001090575f80fd5b905f5260205f20015f91509150505481565b604051637d44a00d60e11b81523360048201526001600160a01b0382169063fa89401a906024015f604051808303815f87803b158015620010e1575f80fd5b505af1158015620010f4573d5f803e3d5ffd5b5050505050565b6110d7806200167883390190565b5f602082840312156200111a575f80fd5b5035919050565b5f81518084525f5b81811015620011475760208185018101518683018201520162001129565b505f602082860101526020601f19601f83011685010191505092915050565b6001600160a01b038a81168252610120602083018190525f916200118d8483018d62001121565b91508382036040850152620011a3828c62001121565b606085019a909a526080840198909852505060a081019490945291151560c084015260e0830152909116610100909101529392505050565b6001600160a01b0381168114620011f0575f80fd5b50565b5f6020828403121562001204575f80fd5b81356200121181620011db565b9392505050565b5f6020808301818452808551808352604092508286019150828160051b8701018488015f5b83811015620012f157888303603f19018552815180516001600160a01b0316845261012088820151818a870152620012788287018262001121565b915050878201518582038987015262001292828262001121565b606084810151908801526080808501519088015260a0808501519088015260c08085015115159088015260e08085015190880152610100938401516001600160a01b03169390960192909252505093860193908601906001016200123d565b509098975050505050505050565b634e487b7160e01b5f52604160045260245ffd5b5f82601f83011262001323575f80fd5b813567ffffffffffffffff80821115620013415762001341620012ff565b604051601f8301601f19908116603f011681019082821181831017156200136c576200136c620012ff565b8160405283815286602085880101111562001385575f80fd5b836020870160208301375f602085830101528094505050505092915050565b5f805f805f60a08688031215620013b9575f80fd5b853567ffffffffffffffff80821115620013d1575f80fd5b620013df89838a0162001313565b96506020880135915080821115620013f5575f80fd5b50620014048882890162001313565b959895975050505060408401359360608101359360809091013592509050565b5f806040838503121562001436575f80fd5b82356200144381620011db565b946020939093013593505050565b600181811c908216806200146657607f821691505b6020821081036200148557634e487b7160e01b5f52602260045260245ffd5b50919050565b634e487b7160e01b5f52603260045260245ffd5b5f60208284031215620014b0575f80fd5b8151801515811462001211575f80fd5b60c081525f620014d460c083018962001121565b8281036020840152620014e8818962001121565b60408401979097525050606081019390935260808301919091526001600160a01b031660a09091015292915050565b601f82111562001564575f81815260208120601f850160051c810160208610156200153f5750805b601f850160051c820191505b8181101562001560578281556001016200154b565b5050505b505050565b815167ffffffffffffffff811115620015865762001586620012ff565b6200159e8162001597845462001451565b8462001517565b602080601f831160018114620015d4575f8415620015bc5750858301515b5f19600386901b1c1916600185901b17855562001560565b5f85815260208120601f198616915b828110156200160457888601518255948401946001909101908401620015e3565b50858210156200162257878501515f19600388901b60f8161c191681555b5050505050600190811b01905550565b634e487b7160e01b5f52601160045260245ffd5b8082018082111562000a435762000a4362001632565b5f6001820162001670576200167062001632565b506001019056fe608060405234801562000010575f80fd5b50604051620010d7380380620010d78339810160408190526200003391620001dc565b33806200005957604051631e4fbdf760e01b81525f600482015260240160405180910390fd5b6200006481620000cf565b5060016200007387826200030b565b5060026200008286826200030b565b50600393909355600491909155600555600880546006805460ff191690555f6007556001600160a01b031990811633909116176001600160a01b0390921691909117905550620003d39050565b5f80546001600160a01b038381166001600160a01b0319831681178455604051919092169283917f8be0079c531659141344cd1fd0a4f28419497f9722a3daafe3b4186f6b6457e09190a35050565b634e487b7160e01b5f52604160045260245ffd5b5f82601f83011262000142575f80fd5b81516001600160401b03808211156200015f576200015f6200011e565b604051601f8301601f19908116603f011681019082821181831017156200018a576200018a6200011e565b81604052838152602092508683858801011115620001a6575f80fd5b5f91505b83821015620001c95785820183015181830184015290820190620001aa565b5f93810190920192909252949350505050565b5f805f805f8060c08789031215620001f2575f80fd5b86516001600160401b038082111562000209575f80fd5b620002178a838b0162000132565b975060208901519150808211156200022d575f80fd5b506200023c89828a0162000132565b604089015160608a015160808b015160a08c01519399509197509550935090506001600160a01b038116811462000271575f80fd5b809150509295509295509295565b600181811c908216806200029457607f821691505b602082108103620002b357634e487b7160e01b5f52602260045260245ffd5b50919050565b601f82111562000306575f81815260208120601f850160051c81016020861015620002e15750805b601f850160051c820191505b818110156200030257828155600101620002ed565b5050505b505050565b81516001600160401b038111156200032757620003276200011e565b6200033f816200033884546200027f565b84620002b9565b602080601f83116001811462000375575f84156200035d5750858301515b5f19600386901b1c1916600185901b17855562000302565b5f85815260208120601f198616915b82811015620003a55788860151825594840194600190910190840162000384565b5085821015620003c357878501515f19600388901b60f8161c191681555b5050505050600190811b01905550565b610cf680620003e15f395ff3fe60806040526004361061011b575f3560e01c8063715018a61161009d578063995c5e9d11610062578063995c5e9d146102f0578063c24a0f8b1461031e578063cb28225314610333578063f2fde38b14610348578063fa89401a14610367575f80fd5b8063715018a6146102855780637284e4161461029957806373e888fd146102ad5780638da5cb5b146102c0578063980e7844146102dc575f80fd5b80633cb5d100116100e35780633cb5d100146101ef5780633ccfd60b1461020e578063401938831461022457806342e94c90146102395780634a79d50c14610264575f80fd5b806302d05d3f1461011f5780630b97bc861461015b5780630ed5a9331461017e57806321eff7fc146101a757806322f3e2d4146101db575b5f80fd5b34801561012a575f80fd5b5060085461013e906001600160a01b031681565b6040516001600160a01b0390911681526020015b60405180910390f35b348015610166575f80fd5b5061017060035481565b604051908152602001610152565b348015610189575f80fd5b506006546101979060ff1681565b6040519015158152602001610152565b3480156101b2575f80fd5b506101706101c1366004610ba0565b6001600160a01b03165f9081526009602052604090205490565b3480156101e6575f80fd5b50610197610386565b3480156101fa575f80fd5b5061013e610209366004610bcd565b6103a0565b348015610219575f80fd5b506102226103c8565b005b34801561022f575f80fd5b5061017060055481565b348015610244575f80fd5b50610170610253366004610ba0565b60096020525f908152604090205481565b34801561026f575f80fd5b50610278610522565b6040516101529190610be4565b348015610290575f80fd5b506102226105ae565b3480156102a4575f80fd5b506102786105c1565b6102226102bb366004610ba0565b6105ce565b3480156102cb575f80fd5b505f546001600160a01b031661013e565b3480156102e7575f80fd5b506102226107bc565b3480156102fb575f80fd5b5061019761030a366004610ba0565b600a6020525f908152604090205460ff1681565b348015610329575f80fd5b5061017060045481565b34801561033e575f80fd5b5061017060075481565b348015610353575f80fd5b50610222610362366004610ba0565b6108cc565b348015610372575f80fd5b50610222610381366004610ba0565b610909565b5f6004544211801561039b575060065460ff16155b905090565b600b81815481106103af575f80fd5b5f918252602090912001546001600160a01b0316905081565b60065460ff16156103ec57604051637ad5c20d60e01b815260040160405180910390fd5b60045442101561040f5760405163cc76115360e01b815260040160405180910390fd5b60055460075410156104345760405163365485ef60e11b815260040160405180910390fd5b61043c610a20565b6008546040513031915f916001600160a01b039091169083908381818185875af1925050503d805f811461048b576040519150601f19603f3d011682016040523d82523d5f602084013e610490565b606091505b50509050806104d85760405162461bcd60e51b815260206004820152600f60248201526e151c985b9cd9995c8819985a5b1959608a1b60448201526064015b60405180910390fd5b600854604080516001600160a01b039092168252602082018490527feaff4b37086828766ad3268786972c0cd24259d4c87a80f9d3963a3c3d999b0d910160405180910390a15050565b6001805461052f90610c2f565b80601f016020809104026020016040519081016040528092919081815260200182805461055b90610c2f565b80156105a65780601f1061057d576101008083540402835291602001916105a6565b820191905f5260205f20905b81548152906001019060200180831161058957829003601f168201915b505050505081565b6105b6610a20565b6105bf5f610a4c565b565b6002805461052f90610c2f565b6003544210156105f1576040516333f44d6160e01b815260040160405180910390fd5b60045442106106135760405163154eb81560e21b815260040160405180910390fd5b60065460ff161561063757604051637ad5c20d60e01b815260040160405180910390fd5b6005546007541061065b5760405163653fd1bd60e01b815260040160405180910390fd5b610663610a20565b34806106825760405163820bf1e560e01b815260040160405180910390fd5b600554816007546106939190610c7b565b11156106b257604051632f7899c560e21b815260040160405180910390fd5b6001600160a01b0382165f908152600a602052604090205460ff16610736576001600160a01b0382165f818152600a60205260408120805460ff19166001908117909155600b805491820181559091527f0175b7a638427703f0dbe7bb9bbf987a2551717b34e79f33b5b1008d1fa01db90180546001600160a01b03191690911790555b6001600160a01b0382165f908152600960205260408120805483929061075d908490610c7b565b925050819055508060075f8282546107759190610c7b565b90915550506040518181526001600160a01b038316907f6770260ea820d2f539364e7617e021543aaf6d192f2fd2a47c20db6bd99a4eb99060200160405180910390a25050565b60065460ff16156107e057604051637ad5c20d60e01b815260040160405180910390fd5b600554600754106108045760405163653fd1bd60e01b815260040160405180910390fd5b60045442106108265760405163154eb81560e21b815260040160405180910390fd5b61082e610a20565b5f5b600b54811015610894575f600b828154811061084e5761084e610c94565b5f9182526020808320909101546001600160a01b0316808352600990915260409091205490915061087f8282610a9b565b5050808061088c90610ca8565b915050610830565b506006805460ff191660011790556040517fb83ebe09f40e9293bdea1d6567fae3175119d3d0ff13c4b4df15994837dd7f51905f90a1565b6108d4610a20565b6001600160a01b0381166108fd57604051631e4fbdf760e01b81525f60048201526024016104cf565b61090681610a4c565b50565b60045442101561092c5760405163cc76115360e01b815260040160405180910390fd5b600554600754106109505760405163653fd1bd60e01b815260040160405180910390fd5b610958610a20565b6001600160a01b038082165f8181526009602052604090205460085490921690036109e7575f5b600b548110156109e2575f600b828154811061099d5761099d610c94565b5f9182526020808320909101546001600160a01b031680835260099091526040909120549091506109cf908290610a9b565b50806109da81610ca8565b91505061097f565b505050565b6001600160a01b0382165f908152600a602052604090205460ff168015610a0d57505f81115b15610a1c57610a1c8282610a9b565b5050565b5f546001600160a01b031633146105bf5760405163118cdaa760e01b81523360048201526024016104cf565b5f80546001600160a01b038381166001600160a01b0319831681178455604051919092169283917f8be0079c531659141344cd1fd0a4f28419497f9722a3daafe3b4186f6b6457e09190a35050565b6001600160a01b0382165f9081526009602052604090205480156109e2576001600160a01b0383165f818152600960205260408082208290555190919083908381818185875af1925050503d805f8114610b10576040519150601f19603f3d011682016040523d82523d5f602084013e610b15565b606091505b5050905080610b585760405162461bcd60e51b815260206004820152600f60248201526e151c985b9cd9995c8819985a5b1959608a1b60448201526064016104cf565b604080516001600160a01b0386168152602081018590527fbb28353e4598c3b9199101a66e0989549b659a59a54d2c27fbb183f1932c8e6d910160405180910390a150505050565b5f60208284031215610bb0575f80fd5b81356001600160a01b0381168114610bc6575f80fd5b9392505050565b5f60208284031215610bdd575f80fd5b5035919050565b5f6020808352835180828501525f5b81811015610c0f57858101830151858201604001528201610bf3565b505f604082860101526040601f19601f8301168501019250505092915050565b600181811c90821680610c4357607f821691505b602082108103610c6157634e487b7160e01b5f52602260045260245ffd5b50919050565b634e487b7160e01b5f52601160045260245ffd5b80820180821115610c8e57610c8e610c67565b92915050565b634e487b7160e01b5f52603260045260245ffd5b5f60018201610cb957610cb9610c67565b506001019056fea26469706673582212209cbc01641fefb1d90cd2a47f690f02fd4e6ea7f3a0c3b563f72073fb7b024f8064736f6c63430008140033a2646970667358221220e7e7c826dde1b56a18230388cc6f3f237313a6bb71aa4b85c4f956da6a0ba83e64736f6c63430008140033","linkReferences":{}},"methodIdentifiers":{"campaignAddressToId(address)":"1b0e2edc","campaigns(uint256)":"141961bc","cancelCampaign(uint256)":"45598b4a","contribute(uint256)":"c1cbbca7","createCampaign(string,string,uint256,uint256,uint256)":"b5c89219","creatorCampaigns(address,uint256)":"ddc8af61","getAllCampaigns()":"86cdf604","getCampaignsByCreator(address)":"d5b8d84a","getCampaignsCount()":"7e6253da","isActive(address)":"9f8a13d7","refund(address)":"fa89401a","withdraw(uint256)":"2e1a7d4d"},"id":23}